{
  "contractName": "CoolWallet",
  "abi": [
    {
      "constant": true,
      "inputs": [],
      "name": "manager",
      "outputs": [
        {
          "name": "",
          "type": "address"
        }
      ],
      "payable": false,
      "stateMutability": "view",
      "type": "function"
    },
    {
      "constant": true,
      "inputs": [],
      "name": "dailyLimit",
      "outputs": [
        {
          "name": "",
          "type": "uint256"
        }
      ],
      "payable": false,
      "stateMutability": "view",
      "type": "function"
    },
    {
      "constant": true,
      "inputs": [],
      "name": "ETHUSD",
      "outputs": [
        {
          "name": "",
          "type": "string"
        }
      ],
      "payable": false,
      "stateMutability": "view",
      "type": "function"
    },
    {
      "constant": true,
      "inputs": [],
      "name": "owner",
      "outputs": [
        {
          "name": "",
          "type": "address"
        }
      ],
      "payable": false,
      "stateMutability": "view",
      "type": "function"
    },
    {
      "inputs": [],
      "payable": true,
      "stateMutability": "payable",
      "type": "constructor"
    },
    {
      "payable": true,
      "stateMutability": "payable",
      "type": "fallback"
    },
    {
      "anonymous": false,
      "inputs": [
        {
          "indexed": false,
          "name": "description",
          "type": "string"
        }
      ],
      "name": "newOraclizeQuery",
      "type": "event"
    },
    {
      "anonymous": false,
      "inputs": [
        {
          "indexed": false,
          "name": "price",
          "type": "string"
        }
      ],
      "name": "updatedPrice",
      "type": "event"
    },
    {
      "constant": false,
      "inputs": [],
      "name": "setManager",
      "outputs": [],
      "payable": false,
      "stateMutability": "nonpayable",
      "type": "function"
    },
    {
      "constant": false,
      "inputs": [
        {
          "name": "recipients",
          "type": "address[]"
        },
        {
          "name": "value",
          "type": "uint256"
        }
      ],
      "name": "massSend",
      "outputs": [
        {
          "name": "",
          "type": "bool"
        }
      ],
      "payable": false,
      "stateMutability": "nonpayable",
      "type": "function"
    },
    {
      "constant": false,
      "inputs": [
        {
          "name": "recipients",
          "type": "address[]"
        },
        {
          "name": "usdValue",
          "type": "uint256"
        }
      ],
      "name": "massSendInUSD",
      "outputs": [
        {
          "name": "",
          "type": "bool"
        }
      ],
      "payable": false,
      "stateMutability": "nonpayable",
      "type": "function"
    },
    {
      "constant": false,
      "inputs": [
        {
          "name": "value",
          "type": "uint256"
        }
      ],
      "name": "setDailyLimit",
      "outputs": [],
      "payable": false,
      "stateMutability": "nonpayable",
      "type": "function"
    },
    {
      "constant": false,
      "inputs": [],
      "name": "freezeWallet",
      "outputs": [],
      "payable": false,
      "stateMutability": "nonpayable",
      "type": "function"
    },
    {
      "constant": false,
      "inputs": [],
      "name": "unfreezeWallet",
      "outputs": [],
      "payable": false,
      "stateMutability": "nonpayable",
      "type": "function"
    },
    {
      "constant": false,
      "inputs": [],
      "name": "abandonWallet",
      "outputs": [],
      "payable": false,
      "stateMutability": "nonpayable",
      "type": "function"
    },
    {
      "constant": false,
      "inputs": [
        {
          "name": "vote",
          "type": "bool"
        }
      ],
      "name": "voteToFreeze",
      "outputs": [],
      "payable": false,
      "stateMutability": "nonpayable",
      "type": "function"
    },
    {
      "constant": false,
      "inputs": [
        {
          "name": "vote",
          "type": "bool"
        }
      ],
      "name": "voteToAbandon",
      "outputs": [],
      "payable": false,
      "stateMutability": "nonpayable",
      "type": "function"
    },
    {
      "constant": false,
      "inputs": [
        {
          "name": "_minNumberToDecentralize",
          "type": "int256"
        }
      ],
      "name": "decentraliseMore",
      "outputs": [],
      "payable": false,
      "stateMutability": "nonpayable",
      "type": "function"
    },
    {
      "constant": true,
      "inputs": [],
      "name": "getAddress",
      "outputs": [
        {
          "name": "thisWalletAddress",
          "type": "address"
        }
      ],
      "payable": false,
      "stateMutability": "view",
      "type": "function"
    },
    {
      "constant": true,
      "inputs": [],
      "name": "getBalance",
      "outputs": [
        {
          "name": "thisWalletBalance",
          "type": "uint256"
        }
      ],
      "payable": false,
      "stateMutability": "view",
      "type": "function"
    },
    {
      "constant": false,
      "inputs": [
        {
          "name": "myid",
          "type": "bytes32"
        },
        {
          "name": "result",
          "type": "string"
        },
        {
          "name": "proof",
          "type": "bytes"
        }
      ],
      "name": "__callback",
      "outputs": [],
      "payable": false,
      "stateMutability": "nonpayable",
      "type": "function"
    },
    {
      "constant": false,
      "inputs": [
        {
          "name": "myid",
          "type": "bytes32"
        },
        {
          "name": "result",
          "type": "string"
        }
      ],
      "name": "__callback",
      "outputs": [],
      "payable": false,
      "stateMutability": "nonpayable",
      "type": "function"
    },
    {
      "constant": false,
      "inputs": [],
      "name": "update",
      "outputs": [],
      "payable": true,
      "stateMutability": "payable",
      "type": "function"
    }
  ],
  "bytecode": "0x60806040526000600a556014600c5532600660006101000a81548173ffffffffffffffffffffffffffffffffffffffff021916908373ffffffffffffffffffffffffffffffffffffffff16021790555033600760006101000a81548173ffffffffffffffffffffffffffffffffffffffff021916908373ffffffffffffffffffffffffffffffffffffffff16021790555042600981905550620000f960017f01000000000000000000000000000000000000000000000000000000000000000260107f01000000000000000000000000000000000000000000000000000000000000000217620000ff640100000000026401000000009004565b62000b03565b60008060009054906101000a900473ffffffffffffffffffffffffffffffffffffffff1673ffffffffffffffffffffffffffffffffffffffff16148062000180575060006200017e6000809054906101000a900473ffffffffffffffffffffffffffffffffffffffff16620004b3640100000000026401000000009004565b145b15620001a357620001a16000620004be640100000000026401000000009004565b505b6000809054906101000a900473ffffffffffffffffffffffffffffffffffffffff1673ffffffffffffffffffffffffffffffffffffffff166338cc48316040518163ffffffff167c0100000000000000000000000000000000000000000000000000000000028152600401602060405180830381600087803b1580156200022957600080fd5b505af11580156200023e573d6000803e3d6000fd5b505050506040513d60208110156200025557600080fd5b810190808051906020019092919050505073ffffffffffffffffffffffffffffffffffffffff16600160009054906101000a900473ffffffffffffffffffffffffffffffffffffffff1673ffffffffffffffffffffffffffffffffffffffff16141515620003c1576000809054906101000a900473ffffffffffffffffffffffffffffffffffffffff1673ffffffffffffffffffffffffffffffffffffffff166338cc48316040518163ffffffff167c0100000000000000000000000000000000000000000000000000000000028152600401602060405180830381600087803b1580156200034357600080fd5b505af115801562000358573d6000803e3d6000fd5b505050506040513d60208110156200036f57600080fd5b8101908080519060200190929190505050600160006101000a81548173ffffffffffffffffffffffffffffffffffffffff021916908373ffffffffffffffffffffffffffffffffffffffff1602179055505b600160009054906101000a900473ffffffffffffffffffffffffffffffffffffffff1673ffffffffffffffffffffffffffffffffffffffff1663688dcfd7826040518263ffffffff167c010000000000000000000000000000000000000000000000000000000002815260040180827effffffffffffffffffffffffffffffffffffffffffffffffffffffffffffff19167effffffffffffffffffffffffffffffffffffffffffffffffffffffffffffff19168152602001915050600060405180830381600087803b1580156200049757600080fd5b505af1158015620004ac573d6000803e3d6000fd5b5050505050565b6000813b9050919050565b6000620004d9620004e0640100000000026401000000009004565b9050919050565b60008062000511731d3b2638a7cc9f2cb3d298a3da7a90b67e5506ed620004b3640100000000026401000000009004565b1115620005c557731d3b2638a7cc9f2cb3d298a3da7a90b67e5506ed6000806101000a81548173ffffffffffffffffffffffffffffffffffffffff021916908373ffffffffffffffffffffffffffffffffffffffff160217905550620005bb6040805190810160405280600b81526020017f6574685f6d61696e6e657400000000000000000000000000000000000000000081525062000a38640100000000026401000000009004565b6001905062000a35565b6000620005f573c03a2615d5efaf5f49f60b7bb6583eaec212fdf1620004b3640100000000026401000000009004565b1115620006a95773c03a2615d5efaf5f49f60b7bb6583eaec212fdf16000806101000a81548173ffffffffffffffffffffffffffffffffffffffff021916908373ffffffffffffffffffffffffffffffffffffffff1602179055506200069f6040805190810160405280600c81526020017f6574685f726f707374656e33000000000000000000000000000000000000000081525062000a38640100000000026401000000009004565b6001905062000a35565b6000620006d973b7a07bcf2ba2f2703b24c0691b5278999c59ac7e620004b3640100000000026401000000009004565b11156200078d5773b7a07bcf2ba2f2703b24c0691b5278999c59ac7e6000806101000a81548173ffffffffffffffffffffffffffffffffffffffff021916908373ffffffffffffffffffffffffffffffffffffffff160217905550620007836040805190810160405280600981526020017f6574685f6b6f76616e000000000000000000000000000000000000000000000081525062000a38640100000000026401000000009004565b6001905062000a35565b6000620007bd73146500cfd35b22e4a392fe0adc06de1a1368ed48620004b3640100000000026401000000009004565b1115620008715773146500cfd35b22e4a392fe0adc06de1a1368ed486000806101000a81548173ffffffffffffffffffffffffffffffffffffffff021916908373ffffffffffffffffffffffffffffffffffffffff160217905550620008676040805190810160405280600b81526020017f6574685f72696e6b65627900000000000000000000000000000000000000000081525062000a38640100000000026401000000009004565b6001905062000a35565b6000620008a1736f485c8bf6fc43ea212e93bbf8ce046c7f1cb475620004b3640100000000026401000000009004565b11156200090657736f485c8bf6fc43ea212e93bbf8ce046c7f1cb4756000806101000a81548173ffffffffffffffffffffffffffffffffffffffff021916908373ffffffffffffffffffffffffffffffffffffffff1602179055506001905062000a35565b6000620009367320e12a1f859b3feae5fb2a0a32c18f5a65555bbf620004b3640100000000026401000000009004565b11156200099b577320e12a1f859b3feae5fb2a0a32c18f5a65555bbf6000806101000a81548173ffffffffffffffffffffffffffffffffffffffff021916908373ffffffffffffffffffffffffffffffffffffffff1602179055506001905062000a35565b6000620009cb7351efaf4c8b3c9afbd5ab9f4bbc82784ab6ef8faa620004b3640100000000026401000000009004565b111562000a30577351efaf4c8b3c9afbd5ab9f4bbc82784ab6ef8faa6000806101000a81548173ffffffffffffffffffffffffffffffffffffffff021916908373ffffffffffffffffffffffffffffffffffffffff1602179055506001905062000a35565b600090505b90565b806002908051906020019062000a5092919062000a54565b5050565b828054600181600116156101000203166002900490600052602060002090601f016020900481019282601f1062000a9757805160ff191683800117855562000ac8565b8280016001018555821562000ac8579182015b8281111562000ac757825182559160200191906001019062000aaa565b5b50905062000ad7919062000adb565b5090565b62000b0091905b8082111562000afc57600081600090555060010162000ae2565b5090565b90565b612c568062000b136000396000f300608060405260043610610107576000357c0100000000000000000000000000000000000000000000000000000000900463ffffffff168063085b3f3f1461010957806312065fe014610120578063155647bf1461014b57806317d478a11461017857806327dc297e1461018f57806333a1c7da1461020657806338bbfa501461028e57806338cc48311461034b578063481c6a75146103a25780634957f340146103f957806367eeba0c1461041057806373db08441461043b57806378ddac4b146104cb57806386f625ed146105535780638d258104146105825780638da5cb5b14610599578063a2e62045146105f0578063b20d30a9146105fa578063c6f0750414610627575b005b34801561011557600080fd5b5061011e610656565b005b34801561012c57600080fd5b506101356106cf565b6040518082815260200191505060405180910390f35b34801561015757600080fd5b50610176600480360381019080803590602001909291905050506106ee565b005b34801561018457600080fd5b5061018d6107af565b005b34801561019b57600080fd5b506102046004803603810190808035600019169060200190929190803590602001908201803590602001908080601f0160208091040260200160405190810160405280939291908181526020018383808284378201915050505050509192919290505050610868565b005b34801561021257600080fd5b5061027460048036038101908080359060200190820180359060200190808060200260200160405190810160405280939291908181526020018383602002808284378201915050505050509192919290803590602001909291905050506108ab565b604051808215151515815260200191505060405180910390f35b34801561029a57600080fd5b506103496004803603810190808035600019169060200190929190803590602001908201803590602001908080601f0160208091040260200160405190810160405280939291908181526020018383808284378201915050505050509192919290803590602001908201803590602001908080601f0160208091040260200160405190810160405280939291908181526020018383808284378201915050505050509192919290505050610a76565b005b34801561035757600080fd5b50610360610cc7565b604051808273ffffffffffffffffffffffffffffffffffffffff1673ffffffffffffffffffffffffffffffffffffffff16815260200191505060405180910390f35b3480156103ae57600080fd5b506103b7610ccf565b604051808273ffffffffffffffffffffffffffffffffffffffff1673ffffffffffffffffffffffffffffffffffffffff16815260200191505060405180910390f35b34801561040557600080fd5b5061040e610cf5565b005b34801561041c57600080fd5b50610425610d6e565b6040518082815260200191505060405180910390f35b34801561044757600080fd5b50610450610d74565b6040518080602001828103825283818151815260200191508051906020019080838360005b83811015610490578082015181840152602081019050610475565b50505050905090810190601f1680156104bd5780820380516001836020036101000a031916815260200191505b509250505060405180910390f35b3480156104d757600080fd5b506105396004803603810190808035906020019082018035906020019080806020026020016040519081016040528093929190818152602001838360200280828437820191505050505050919291929080359060200190929190505050610e12565b604051808215151515815260200191505060405180910390f35b34801561055f57600080fd5b50610580600480360381019080803515159060200190929190505050611094565b005b34801561058e57600080fd5b506105976111c9565b005b3480156105a557600080fd5b506105ae61122e565b604051808273ffffffffffffffffffffffffffffffffffffffff1673ffffffffffffffffffffffffffffffffffffffff16815260200191505060405180910390f35b6105f8611254565b005b34801561060657600080fd5b5061062560048036038101908080359060200190929190505050611598565b005b34801561063357600080fd5b50610654600480360381019080803515159060200190929190505050611620565b005b600760009054906101000a900473ffffffffffffffffffffffffffffffffffffffff1673ffffffffffffffffffffffffffffffffffffffff163373ffffffffffffffffffffffffffffffffffffffff161415156106b257600080fd5b6000600d60006101000a81548160ff021916908315150217905550565b60003073ffffffffffffffffffffffffffffffffffffffff1631905090565b60008082121515156106ff57600080fd5b819050600d60029054906101000a900473ffffffffffffffffffffffffffffffffffffffff1673ffffffffffffffffffffffffffffffffffffffff16636cf8b145826040518263ffffffff167c010000000000000000000000000000000000000000000000000000000002815260040180828152602001915050600060405180830381600087803b15801561079357600080fd5b505af11580156107a7573d6000803e3d6000fd5b505050505050565b600760009054906101000a900473ffffffffffffffffffffffffffffffffffffffff1673ffffffffffffffffffffffffffffffffffffffff163373ffffffffffffffffffffffffffffffffffffffff1614151561080b57600080fd5b60011515600d60009054906101000a900460ff16151514151561082d57600080fd5b600660009054906101000a900473ffffffffffffffffffffffffffffffffffffffff1673ffffffffffffffffffffffffffffffffffffffff16ff5b6108a7828260006040519080825280601f01601f1916602001820160405280156108a15781602001602082028038833980820191505090505b50610a76565b5050565b6000806000600660009054906101000a900473ffffffffffffffffffffffffffffffffffffffff1673ffffffffffffffffffffffffffffffffffffffff163373ffffffffffffffffffffffffffffffffffffffff1614151561090c57600080fd5b8484600061092482845161175590919063ffffffff16565b90503073ffffffffffffffffffffffffffffffffffffffff1631811115151561094c57600080fd5b8787600080600854600a541115151561096457600080fd5b600a549150600090505b8351811015610989578282019150808060010191505061096e565b600854821115151561099a57600080fd5b60001515600d60009054906101000a900460ff1615151415156109bc57600080fd5b62015180600954014211156109db576000600a81905550426009819055505b600098505b8b51891015610a67578b898151811015156109f757fe5b9060200190602002015197508773ffffffffffffffffffffffffffffffffffffffff166108fc8c9081150290604051600060405180830381858888f19350505050158015610a49573d6000803e3d6000fd5b508a600a6000828254019250508190555088806001019950506109e0565b50505050505050505092915050565b610a7e612b6b565b6060610a88612b6b565b610a90612b6b565b6060806060610a9d61178d565b73ffffffffffffffffffffffffffffffffffffffff163373ffffffffffffffffffffffffffffffffffffffff16141515610ad657600080fd5b8860059080519060200190610aec929190612b85565b507f891acff763972fa7f25226caa78556f59bcb130f6f13fd6ab9b9fef99cff9c6960056040518080602001828103825283818154600181600116156101000203166002900481526020019150805460018160011615610100020316600290048015610b995780601f10610b6e57610100808354040283529160200191610b99565b820191906000526020600020905b815481529060010190602001808311610b7c57829003601f168201915b50509250505060405180910390a1610bb089611aeb565b9650610c0a610c05610bf66040805190810160405280600981526020017f75696e743235363a200000000000000000000000000000000000000000000000815250611aeb565b89611b1990919063ffffffff16565b611b33565b9550610c1586611aeb565b9450610c67610c586040805190810160405280600181526020017f2e00000000000000000000000000000000000000000000000000000000000000815250611aeb565b86611b1990919063ffffffff16565b9350610c7285611b33565b9250610c7d84611b33565b9150610ca2610c8b84611aeb565b610c9484611aeb565b611b9590919063ffffffff16565b9050610cad81611c17565b600b81905550610cbb611254565b50505050505050505050565b600030905090565b600760009054906101000a900473ffffffffffffffffffffffffffffffffffffffff1681565b600760009054906101000a900473ffffffffffffffffffffffffffffffffffffffff1673ffffffffffffffffffffffffffffffffffffffff163373ffffffffffffffffffffffffffffffffffffffff16141515610d5157600080fd5b6001600d60006101000a81548160ff021916908315150217905550565b60085481565b60058054600181600116156101000203166002900480601f016020809104026020016040519081016040528092919081815260200182805460018160011615610100020316600290048015610e0a5780601f10610ddf57610100808354040283529160200191610e0a565b820191906000526020600020905b815481529060010190602001808311610ded57829003601f168201915b505050505081565b600080600080600660009054906101000a900473ffffffffffffffffffffffffffffffffffffffff1673ffffffffffffffffffffffffffffffffffffffff163373ffffffffffffffffffffffffffffffffffffffff16141515610e7457600080fd5b85610ea6600b54610e9869152d02c7e14af68000008961175590919063ffffffff16565b611c2b90919063ffffffff16565b6000610ebc82845161175590919063ffffffff16565b90503073ffffffffffffffffffffffffffffffffffffffff16318111151515610ee457600080fd5b88610f16600b54610f0869152d02c7e14af68000008c61175590919063ffffffff16565b611c2b90919063ffffffff16565b600080600854600a5411151515610f2c57600080fd5b600a549150600090505b8351811015610f515782820191508080600101915050610f36565b6008548211151515610f6257600080fd5b60001515600d60009054906101000a900460ff161515141515610f8457600080fd5b60011515600d60019054906101000a900460ff161515141515610fa657600080fd5b6201518060095401421115610fc5576000600a81905550426009819055505b610ff6600b54610fe869152d02c7e14af68000008f61175590919063ffffffff16565b611c2b90919063ffffffff16565b9950600098505b8c51891015611084578c8981518110151561101457fe5b9060200190602002015197508773ffffffffffffffffffffffffffffffffffffffff166108fc8b9081150290604051600060405180830381858888f19350505050158015611066573d6000803e3d6000fd5b5089600a600082825401925050819055508880600101995050610ffd565b5050505050505050505092915050565b60008060011515600d60019054906101000a900460ff1615151415156110b957600080fd5b600b5491506110ef826110e169152d02c7e14af6800000600c5461175590919063ffffffff16565b611c2b90919063ffffffff16565b9050803073ffffffffffffffffffffffffffffffffffffffff16311015151561111757600080fd5b600d60029054906101000a900473ffffffffffffffffffffffffffffffffffffffff1673ffffffffffffffffffffffffffffffffffffffff1663ca0ba858846040518263ffffffff167c01000000000000000000000000000000000000000000000000000000000281526004018082151515158152602001915050600060405180830381600087803b1580156111ac57600080fd5b505af11580156111c0573d6000803e3d6000fd5b50505050505050565b600760009054906101000a900473ffffffffffffffffffffffffffffffffffffffff16600d60026101000a81548173ffffffffffffffffffffffffffffffffffffffff021916908373ffffffffffffffffffffffffffffffffffffffff160217905550565b600660009054906101000a900473ffffffffffffffffffffffffffffffffffffffff1681565b3073ffffffffffffffffffffffffffffffffffffffff1631600160009054906101000a900473ffffffffffffffffffffffffffffffffffffffff1673ffffffffffffffffffffffffffffffffffffffff1663524f38896040518163ffffffff167c01000000000000000000000000000000000000000000000000000000000281526004018080602001828103825260038152602001807f55524c0000000000000000000000000000000000000000000000000000000000815250602001915050602060405180830381600087803b15801561132e57600080fd5b505af1158015611342573d6000803e3d6000fd5b505050506040513d602081101561135857600080fd5b81019080805190602001909291905050501115611428577f46cb989ef9cef13e930e3b7f286225a086e716a90d63e0b7da85d310a9db0c9a60405180806020018281038252604b8152602001807f4f7261636c697a6520717565727920776173204e4f542073656e742c20706c6581526020017f6173652061646420736f6d652045544820746f20636f76657220666f7220746881526020017f652071756572792066656500000000000000000000000000000000000000000081525060600191505060405180910390a1611596565b7f46cb989ef9cef13e930e3b7f286225a086e716a90d63e0b7da85d310a9db0c9a6040518080602001828103825260358152602001807f4f7261636c697a65207175657279207761732073656e742c207374616e64696e81526020017f6720627920666f722074686520616e737765722e2e000000000000000000000081525060400191505060405180910390a16001600d60016101000a81548160ff021916908315150217905550611594603c6040805190810160405280600381526020017f55524c0000000000000000000000000000000000000000000000000000000000815250608060405190810160405280604c81526020017f6a736f6e2868747470733a2f2f6170692e6b72616b656e2e636f6d2f302f707581526020017f626c69632f5469636b65723f706169723d455448555344292e726573756c742e81526020017f584554485a5553442e632e300000000000000000000000000000000000000000815250611c41565b505b565b600660009054906101000a900473ffffffffffffffffffffffffffffffffffffffff1673ffffffffffffffffffffffffffffffffffffffff163373ffffffffffffffffffffffffffffffffffffffff161415156115f457600080fd5b60001515600d60009054906101000a900460ff16151514151561161657600080fd5b8060088190555050565b60008060011515600d60019054906101000a900460ff16151514151561164557600080fd5b600b54915061167b8261166d69152d02c7e14af6800000600c5461175590919063ffffffff16565b611c2b90919063ffffffff16565b9050803073ffffffffffffffffffffffffffffffffffffffff1631101515156116a357600080fd5b600d60029054906101000a900473ffffffffffffffffffffffffffffffffffffffff1673ffffffffffffffffffffffffffffffffffffffff1663fa555537846040518263ffffffff167c01000000000000000000000000000000000000000000000000000000000281526004018082151515158152602001915050600060405180830381600087803b15801561173857600080fd5b505af115801561174c573d6000803e3d6000fd5b50505050505050565b6000808314156117685760009050611787565b818302905081838281151561177957fe5b0414151561178357fe5b8090505b92915050565b6000806000809054906101000a900473ffffffffffffffffffffffffffffffffffffffff1673ffffffffffffffffffffffffffffffffffffffff1614806117fd575060006117fb6000809054906101000a900473ffffffffffffffffffffffffffffffffffffffff166121e3565b145b1561180e5761180c60006121ee565b505b6000809054906101000a900473ffffffffffffffffffffffffffffffffffffffff1673ffffffffffffffffffffffffffffffffffffffff166338cc48316040518163ffffffff167c0100000000000000000000000000000000000000000000000000000000028152600401602060405180830381600087803b15801561189357600080fd5b505af11580156118a7573d6000803e3d6000fd5b505050506040513d60208110156118bd57600080fd5b810190808051906020019092919050505073ffffffffffffffffffffffffffffffffffffffff16600160009054906101000a900473ffffffffffffffffffffffffffffffffffffffff1673ffffffffffffffffffffffffffffffffffffffff16141515611a25576000809054906101000a900473ffffffffffffffffffffffffffffffffffffffff1673ffffffffffffffffffffffffffffffffffffffff166338cc48316040518163ffffffff167c0100000000000000000000000000000000000000000000000000000000028152600401602060405180830381600087803b1580156119a957600080fd5b505af11580156119bd573d6000803e3d6000fd5b505050506040513d60208110156119d357600080fd5b8101908080519060200190929190505050600160006101000a81548173ffffffffffffffffffffffffffffffffffffffff021916908373ffffffffffffffffffffffffffffffffffffffff1602179055505b600160009054906101000a900473ffffffffffffffffffffffffffffffffffffffff1673ffffffffffffffffffffffffffffffffffffffff1663c281d19e6040518163ffffffff167c0100000000000000000000000000000000000000000000000000000000028152600401602060405180830381600087803b158015611aab57600080fd5b505af1158015611abf573d6000803e3d6000fd5b505050506040513d6020811015611ad557600080fd5b8101908080519060200190929190505050905090565b611af3612b6b565b600060208301905060408051908101604052808451815260200182815250915050919050565b611b21612b6b565b611b2c8383836121ff565b5092915050565b606080600083600001516040519080825280601f01601f191660200182016040528015611b6f5781602001602082028038833980820191505090505b509150602082019050611b8b818560200151866000015161229d565b8192505050919050565b606080600083600001518560000151016040519080825280601f01601f191660200182016040528015611bd75781602001602082028038833980820191505090505b509150602082019050611bf3818660200151876000015161229d565b611c0c856000015182018560200151866000015161229d565b819250505092915050565b6000611c248260006122e8565b9050919050565b60008183811515611c3857fe5b04905092915050565b60008060008060009054906101000a900473ffffffffffffffffffffffffffffffffffffffff1673ffffffffffffffffffffffffffffffffffffffff161480611cb357506000611cb16000809054906101000a900473ffffffffffffffffffffffffffffffffffffffff166121e3565b145b15611cc457611cc260006121ee565b505b6000809054906101000a900473ffffffffffffffffffffffffffffffffffffffff1673ffffffffffffffffffffffffffffffffffffffff166338cc48316040518163ffffffff167c0100000000000000000000000000000000000000000000000000000000028152600401602060405180830381600087803b158015611d4957600080fd5b505af1158015611d5d573d6000803e3d6000fd5b505050506040513d6020811015611d7357600080fd5b810190808051906020019092919050505073ffffffffffffffffffffffffffffffffffffffff16600160009054906101000a900473ffffffffffffffffffffffffffffffffffffffff1673ffffffffffffffffffffffffffffffffffffffff16141515611edb576000809054906101000a900473ffffffffffffffffffffffffffffffffffffffff1673ffffffffffffffffffffffffffffffffffffffff166338cc48316040518163ffffffff167c0100000000000000000000000000000000000000000000000000000000028152600401602060405180830381600087803b158015611e5f57600080fd5b505af1158015611e73573d6000803e3d6000fd5b505050506040513d6020811015611e8957600080fd5b8101908080519060200190929190505050600160006101000a81548173ffffffffffffffffffffffffffffffffffffffff021916908373ffffffffffffffffffffffffffffffffffffffff1602179055505b600160009054906101000a900473ffffffffffffffffffffffffffffffffffffffff1673ffffffffffffffffffffffffffffffffffffffff1663524f3889856040518263ffffffff167c01000000000000000000000000000000000000000000000000000000000281526004018080602001828103825283818151815260200191508051906020019080838360005b83811015611f85578082015181840152602081019050611f6a565b50505050905090810190601f168015611fb25780820380516001836020036101000a031916815260200191505b5092505050602060405180830381600087803b158015611fd157600080fd5b505af1158015611fe5573d6000803e3d6000fd5b505050506040513d6020811015611ffb57600080fd5b8101908080519060200190929190505050905062030d403a02670de0b6b3a76400000181111561203157600060010291506121db565b600160009054906101000a900473ffffffffffffffffffffffffffffffffffffffff1673ffffffffffffffffffffffffffffffffffffffff1663adf59f99828787876040518563ffffffff167c0100000000000000000000000000000000000000000000000000000000028152600401808481526020018060200180602001838103835285818151815260200191508051906020019080838360005b838110156120e85780820151818401526020810190506120cd565b50505050905090810190601f1680156121155780820380516001836020036101000a031916815260200191505b50838103825284818151815260200191508051906020019080838360005b8381101561214e578082015181840152602081019050612133565b50505050905090810190601f16801561217b5780820380516001836020036101000a031916815260200191505b50955050505050506020604051808303818588803b15801561219c57600080fd5b505af11580156121b0573d6000803e3d6000fd5b50505050506040513d60208110156121c757600080fd5b810190808051906020019092919050505091505b509392505050565b6000813b9050919050565b60006121f86125dc565b9050919050565b612207612b6b565b60006122258560000151866020015186600001518760200151612a6b565b90508460200151836020018181525050846020015181038360000181815250508460000151856020015101811415612267576000856000018181525050612292565b8360000151836000015101856000018181510391508181525050836000015181018560200181815250505b829150509392505050565b60005b6020821015156122c557825184526020840193506020830192506020820391506122a0565b6001826020036101000a0390508019835116818551168181178652505050505050565b6000606060008060008693506000925060009150600090505b83518110156125bd5760307f010000000000000000000000000000000000000000000000000000000000000002848281518110151561233c57fe5b9060200101517f010000000000000000000000000000000000000000000000000000000000000090047f0100000000000000000000000000000000000000000000000000000000000000027effffffffffffffffffffffffffffffffffffffffffffffffffffffffffffff191610158015612454575060397f01000000000000000000000000000000000000000000000000000000000000000284828151811015156123e457fe5b9060200101517f010000000000000000000000000000000000000000000000000000000000000090047f0100000000000000000000000000000000000000000000000000000000000000027effffffffffffffffffffffffffffffffffffffffffffffffffffffffffffff191611155b1561250557811561247757600086141561246d576125bd565b8580600190039650505b600a830292506030848281518110151561248d57fe5b9060200101517f010000000000000000000000000000000000000000000000000000000000000090047f0100000000000000000000000000000000000000000000000000000000000000027f0100000000000000000000000000000000000000000000000000000000000000900403830192506125b0565b602e7f010000000000000000000000000000000000000000000000000000000000000002848281518110151561253757fe5b9060200101517f010000000000000000000000000000000000000000000000000000000000000090047f0100000000000000000000000000000000000000000000000000000000000000027effffffffffffffffffffffffffffffffffffffffffffffffffffffffffffff191614156125af57600191505b5b8080600101915050612301565b60008611156125cf5785600a0a830292505b8294505050505092915050565b6000806125fc731d3b2638a7cc9f2cb3d298a3da7a90b67e5506ed6121e3565b111561269d57731d3b2638a7cc9f2cb3d298a3da7a90b67e5506ed6000806101000a81548173ffffffffffffffffffffffffffffffffffffffff021916908373ffffffffffffffffffffffffffffffffffffffff1602179055506126946040805190810160405280600b81526020017f6574685f6d61696e6e6574000000000000000000000000000000000000000000815250612b51565b60019050612a68565b60006126bc73c03a2615d5efaf5f49f60b7bb6583eaec212fdf16121e3565b111561275d5773c03a2615d5efaf5f49f60b7bb6583eaec212fdf16000806101000a81548173ffffffffffffffffffffffffffffffffffffffff021916908373ffffffffffffffffffffffffffffffffffffffff1602179055506127546040805190810160405280600c81526020017f6574685f726f707374656e330000000000000000000000000000000000000000815250612b51565b60019050612a68565b600061277c73b7a07bcf2ba2f2703b24c0691b5278999c59ac7e6121e3565b111561281d5773b7a07bcf2ba2f2703b24c0691b5278999c59ac7e6000806101000a81548173ffffffffffffffffffffffffffffffffffffffff021916908373ffffffffffffffffffffffffffffffffffffffff1602179055506128146040805190810160405280600981526020017f6574685f6b6f76616e0000000000000000000000000000000000000000000000815250612b51565b60019050612a68565b600061283c73146500cfd35b22e4a392fe0adc06de1a1368ed486121e3565b11156128dd5773146500cfd35b22e4a392fe0adc06de1a1368ed486000806101000a81548173ffffffffffffffffffffffffffffffffffffffff021916908373ffffffffffffffffffffffffffffffffffffffff1602179055506128d46040805190810160405280600b81526020017f6574685f72696e6b656279000000000000000000000000000000000000000000815250612b51565b60019050612a68565b60006128fc736f485c8bf6fc43ea212e93bbf8ce046c7f1cb4756121e3565b111561295f57736f485c8bf6fc43ea212e93bbf8ce046c7f1cb4756000806101000a81548173ffffffffffffffffffffffffffffffffffffffff021916908373ffffffffffffffffffffffffffffffffffffffff16021790555060019050612a68565b600061297e7320e12a1f859b3feae5fb2a0a32c18f5a65555bbf6121e3565b11156129e1577320e12a1f859b3feae5fb2a0a32c18f5a65555bbf6000806101000a81548173ffffffffffffffffffffffffffffffffffffffff021916908373ffffffffffffffffffffffffffffffffffffffff16021790555060019050612a68565b6000612a007351efaf4c8b3c9afbd5ab9f4bbc82784ab6ef8faa6121e3565b1115612a63577351efaf4c8b3c9afbd5ab9f4bbc82784ab6ef8faa6000806101000a81548173ffffffffffffffffffffffffffffffffffffffff021916908373ffffffffffffffffffffffffffffffffffffffff16021790555060019050612a68565b600090505b90565b60008060008060008060008060008b97508c8b111515612b3b5760208b111515612af55760018b60200360080260020a03196001029550858a511694508a8d8d010393508588511692505b84600019168360001916141515612aed578388101515612ada578c8c019850612b41565b8780600101985050858851169250612ab6565b879850612b41565b8a8a209150600096505b8a8d0387111515612b3a578a88209050806000191682600019161415612b2757879850612b41565b6001880197508680600101975050612aff565b5b8c8c0198505b5050505050505050949350505050565b8060029080519060200190612b67929190612b85565b5050565b604080519081016040528060008152602001600081525090565b828054600181600116156101000203166002900490600052602060002090601f016020900481019282601f10612bc657805160ff1916838001178555612bf4565b82800160010185558215612bf4579182015b82811115612bf3578251825591602001919060010190612bd8565b5b509050612c019190612c05565b5090565b612c2791905b80821115612c23576000816000905550600101612c0b565b5090565b905600a165627a7a7230582037ea2284186d318868be26a6b9a25ed303641d113bd392555c83164fb8c3d8280029",
  "source": "pragma solidity^0.4.24;\r\n//import \"github.com/oraclize/ethereum-api/oraclizeAPI.sol\";\r\n//import \"github.com/OpenZeppelin/zeppelin-solidity/contracts/math/SafeMath.sol\";\r\n//import \"github.com/Arachnid/solidity-stringutils/strings.sol\";\r\nimport \"./CoolWalletManager.sol\";\r\nimport \"zeppelin-solidity/contracts/math/SafeMath.sol\";\r\nimport \"oraclize-api/usingOraclize.sol\";\r\nimport \"./solidity-stringutils-master/src/strings.sol\";\r\n\r\ncontract CoolWallet is usingOraclize{\r\n    /*\r\n    The purpose of this app is simply to allow mass sending of a predetermined amount of Ether to multiple addresses. It functions mostly as a wallet.\r\n    The app comes with a few functionalities:\r\n        - Set a daily limit\r\n        - Show the existing balance of the wallet\r\n        - Accept payments to the wallet\r\n        - Send to multiple addresses\r\n        - Live Exchange rates updated per minute\r\n        - Automatic live conversion from USD to Ether and sending (Useful if you owe money in USD and need to pay in Ether)\r\n    You can use it with Remix browser: https://remix.ethereum.org\r\n    */\r\n    \r\n    using SafeMath for uint;\r\n    using strings for *;\r\n    \r\n    string public ETHUSD;\r\n    address public owner;\r\n    address public manager;\r\n    uint public dailyLimit;\r\n    uint dayStart;\r\n    uint dailySum = 0;\r\n    uint exchangeRateFullDecimal;\r\n    uint USDValueToPeg = 20;\r\n    bool frozen;\r\n    bool startedUpdate;\r\n    CoolWalletManager walletManager;\r\n    \r\n    event newOraclizeQuery(string description);\r\n    event updatedPrice(string price);\r\n    \r\n    constructor() public payable{\r\n        owner = tx.origin;\r\n        manager = msg.sender;\r\n        dayStart = now;\r\n        oraclize_setProof(proofType_TLSNotary | proofStorage_IPFS);\r\n    }\r\n    \r\n    modifier onlyOwner(){\r\n        require(msg.sender == owner);\r\n        _;\r\n    }\r\n    modifier enoughBalance(address[] recipients, uint256 value){\r\n        uint outgoingValue = recipients.length.mul(value);\r\n        require(outgoingValue <= this.balance);\r\n        _;\r\n    }\r\n    \r\n    modifier underDailyLimit(address[] recipients, uint256 value){\r\n        require(dailySum <= dailyLimit);\r\n        uint forecastedSum = dailySum;\r\n        for (uint i = 0; i< recipients.length; i++){\r\n            forecastedSum += value;\r\n        }\r\n        require(forecastedSum <= dailyLimit);\r\n        _;\r\n    }\r\n    \r\n    modifier normalActivity(){\r\n        require(frozen == false);\r\n        _;\r\n    }\r\n    \r\n    modifier onlyManager(){\r\n        require(msg.sender == manager);\r\n        _;\r\n    }\r\n    \r\n    \r\n    modifier sufficientBalance(){\r\n        // This is to make it financially expensive for a troll to create multiple accounts and thus form majority\r\n        // allowing him to freeze or destroy wallets as he pleases.\r\n        // This would require the troll(s) to create > 500 accounts and have > USD$10000 in eth to play the system.\r\n        require(startedUpdate == true);\r\n        uint exchangeRate = exchangeRateFullDecimal;\r\n        uint valueToPeg = USDValueToPeg.mul(100000000000000000000000).div(exchangeRate);\r\n        require(this.balance >= valueToPeg);\r\n        _;\r\n    }\r\n    \r\n    modifier startUpdate(){\r\n        require(startedUpdate == true);\r\n        _;\r\n    }\r\n    \r\n    function setManager() public{\r\n        walletManager = CoolWalletManager(manager);\r\n    }\r\n    function massSend(address[] recipients, uint256 value) public onlyOwner enoughBalance(recipients, value) underDailyLimit(recipients, value) normalActivity returns (bool){\r\n        if (now > dayStart + 1 days){\r\n            dailySum = 0;\r\n            dayStart = now;\r\n        }\r\n        for (uint i = 0; i< recipients.length; i++){\r\n            address toSend = recipients[i];\r\n            toSend.transfer(value);\r\n            dailySum += value;\r\n        }\r\n    } \r\n    \r\n    function massSendInUSD(address[] recipients, uint256 usdValue) public onlyOwner enoughBalance(recipients, usdValue.mul(100000000000000000000000).div(exchangeRateFullDecimal)) underDailyLimit(recipients, usdValue.mul(100000000000000000000000).div(exchangeRateFullDecimal)) normalActivity startUpdate returns (bool){\r\n        if (now > dayStart + 1 days){\r\n            dailySum = 0;\r\n            dayStart = now;\r\n        }\r\n        uint value = usdValue.mul(100000000000000000000000).div(exchangeRateFullDecimal);\r\n        for (uint i = 0; i< recipients.length; i++){\r\n            address toSend = recipients[i];\r\n            toSend.transfer(value);\r\n            dailySum += value;\r\n        }\r\n    } \r\n    \r\n    function setDailyLimit(uint value) public onlyOwner normalActivity{\r\n        dailyLimit = value;\r\n    }\r\n    \r\n    function freezeWallet() onlyManager external {\r\n        frozen = true;\r\n    }\r\n\r\n    function unfreezeWallet() onlyManager external {\r\n        frozen = false;\r\n    }\r\n    \r\n    function abandonWallet() onlyManager external {\r\n        require (frozen == true);\r\n        selfdestruct(owner);\r\n    }\r\n    \r\n    function voteToFreeze(bool vote) sufficientBalance public{\r\n        walletManager.votingForFreeze(vote);\r\n    }\r\n    \r\n    function voteToAbandon(bool vote) sufficientBalance public{\r\n        walletManager.votingForAbandon(vote);\r\n    }\r\n\r\n    function decentraliseMore(int _minNumberToDecentralize) public{\r\n        require(_minNumberToDecentralize >= 0);\r\n        uint communityVoteNumber = uint(_minNumberToDecentralize);\r\n        walletManager.communityVote(communityVoteNumber);\r\n    }\r\n    \r\n    function getAddress() view returns (address thisWalletAddress){\r\n        return address(this);\r\n    }\r\n    \r\n    function getBalance() view returns(uint thisWalletBalance){\r\n        return this.balance;\r\n    }\r\n    \r\n    function() public payable{    \r\n        //allow contract to receive money\r\n    }\r\n    \r\n    //Oracle functions\r\n    function __callback(bytes32 myid, string result, bytes proof) {\r\n        if (msg.sender != oraclize_cbAddress()) throw;\r\n        ETHUSD = result;\r\n        updatedPrice(ETHUSD);\r\n        strings.slice memory temp = result.toSlice();\r\n        string memory stringRate = temp.split(\"uint256: \".toSlice()).toString();\r\n        strings.slice memory decimalsTemp = stringRate.toSlice();\r\n        strings.slice memory integersTemp = decimalsTemp.split(\".\".toSlice());\r\n        string memory decimals = decimalsTemp.toString();\r\n        string memory integers = integersTemp.toString();\r\n        string memory totalNumber = integers.toSlice().concat(decimals.toSlice());\r\n        exchangeRateFullDecimal = parseInt(totalNumber);\r\n        update();\r\n    }\r\n    \r\n    function update() payable {\r\n        if (oraclize.getPrice(\"URL\") > this.balance) {\r\n            newOraclizeQuery(\"Oraclize query was NOT sent, please add some ETH to cover for the query fee\");\r\n        } else {\r\n            newOraclizeQuery(\"Oraclize query was sent, standing by for the answer..\");\r\n            startedUpdate = true;\r\n            oraclize_query(60, \"URL\", \"json(https://api.kraken.com/0/public/Ticker?pair=ETHUSD).result.XETHZUSD.c.0\");\r\n        }\r\n    }\r\n}",
  "sourcePath": "D:\\Downloads\\SMUSTUFF\\Y3S1\\Blockchain\\Projects\\Blockchain\\Ethereum\\Decentralised Wallet\\contracts\\CoolWallet.sol",
  "compiler": {
    "name": "solc",
    "version": "0.4.24+commit.e67f0147.Emscripten.clang"
  },
  "schemaVersion": "2.0.1",
  "updatedAt": "2018-08-24T17:24:49.962Z"
}