{
  "contractName": "CoolWalletManager",
  "abi": [
    {
      "constant": true,
      "inputs": [],
      "name": "abandoned",
      "outputs": [
        {
          "name": "",
          "type": "bool"
        }
      ],
      "payable": false,
      "stateMutability": "view",
      "type": "function"
    },
    {
      "constant": true,
      "inputs": [],
      "name": "frozen",
      "outputs": [
        {
          "name": "",
          "type": "bool"
        }
      ],
      "payable": false,
      "stateMutability": "view",
      "type": "function"
    },
    {
      "constant": true,
      "inputs": [
        {
          "name": "",
          "type": "address"
        }
      ],
      "name": "abandonVotes",
      "outputs": [
        {
          "name": "",
          "type": "bool"
        }
      ],
      "payable": false,
      "stateMutability": "view",
      "type": "function"
    },
    {
      "constant": true,
      "inputs": [
        {
          "name": "",
          "type": "address"
        }
      ],
      "name": "freezeVotes",
      "outputs": [
        {
          "name": "",
          "type": "bool"
        }
      ],
      "payable": false,
      "stateMutability": "view",
      "type": "function"
    },
    {
      "constant": true,
      "inputs": [],
      "name": "CommunityVotingMinNumber",
      "outputs": [
        {
          "name": "",
          "type": "uint256"
        }
      ],
      "payable": false,
      "stateMutability": "view",
      "type": "function"
    },
    {
      "constant": true,
      "inputs": [
        {
          "name": "",
          "type": "uint256"
        }
      ],
      "name": "accounts",
      "outputs": [
        {
          "name": "",
          "type": "address"
        }
      ],
      "payable": false,
      "stateMutability": "view",
      "type": "function"
    },
    {
      "inputs": [],
      "payable": false,
      "stateMutability": "nonpayable",
      "type": "constructor"
    },
    {
      "payable": true,
      "stateMutability": "payable",
      "type": "fallback"
    },
    {
      "anonymous": false,
      "inputs": [
        {
          "indexed": false,
          "name": "walletAddress",
          "type": "address"
        }
      ],
      "name": "WalletCreated",
      "type": "event"
    },
    {
      "constant": false,
      "inputs": [],
      "name": "createWallet",
      "outputs": [],
      "payable": true,
      "stateMutability": "payable",
      "type": "function"
    },
    {
      "constant": false,
      "inputs": [],
      "name": "freeze",
      "outputs": [],
      "payable": false,
      "stateMutability": "nonpayable",
      "type": "function"
    },
    {
      "constant": false,
      "inputs": [],
      "name": "unfreeze",
      "outputs": [],
      "payable": false,
      "stateMutability": "nonpayable",
      "type": "function"
    },
    {
      "constant": false,
      "inputs": [],
      "name": "abandon",
      "outputs": [],
      "payable": false,
      "stateMutability": "nonpayable",
      "type": "function"
    },
    {
      "constant": false,
      "inputs": [
        {
          "name": "minNumberToDecentralize",
          "type": "uint256"
        }
      ],
      "name": "communityVote",
      "outputs": [],
      "payable": false,
      "stateMutability": "nonpayable",
      "type": "function"
    },
    {
      "constant": false,
      "inputs": [
        {
          "name": "toFreeze",
          "type": "bool"
        }
      ],
      "name": "votingForFreeze",
      "outputs": [],
      "payable": false,
      "stateMutability": "nonpayable",
      "type": "function"
    },
    {
      "constant": false,
      "inputs": [
        {
          "name": "toAbandon",
          "type": "bool"
        }
      ],
      "name": "votingForAbandon",
      "outputs": [],
      "payable": false,
      "stateMutability": "nonpayable",
      "type": "function"
    }
  ],
  "bytecode": "0x60806040526000600460006101000a81548160ff0219169083151502179055506000600460016101000a81548160ff021916908315150217905550600260038054905081151561004b57fe5b046005556103e860065534801561006157600080fd5b506145fe806100716000396000f300608060405260043610620000d3576000357c0100000000000000000000000000000000000000000000000000000000900463ffffffff168063047168e014620000d5578063054f7d9c146200010757806311ebbf241462000139578063213dfd03146200014557806362a5af3b14620001a35780636a28f00014620001bd5780636cf8b14514620001d7578063883188341462000207578063ba31f0a11462000221578063ca0ba858146200027f578063d7227e3f14620002b1578063f2a40db814620002df578063fa555537146200034f575b005b348015620000e257600080fd5b50620000ed62000381565b604051808215151515815260200191505060405180910390f35b3480156200011457600080fd5b506200011f62000394565b604051808215151515815260200191505060405180910390f35b62000143620003a7565b005b3480156200015257600080fd5b5062000189600480360381019080803573ffffffffffffffffffffffffffffffffffffffff169060200190929190505050620005df565b604051808215151515815260200191505060405180910390f35b348015620001b057600080fd5b50620001bb620005ff565b005b348015620001ca57600080fd5b50620001d5620007fa565b005b348015620001e457600080fd5b506200020560048036038101908080359060200190929190505050620009f5565b005b3480156200021457600080fd5b506200021f62000a86565b005b3480156200022e57600080fd5b5062000265600480360381019080803573ffffffffffffffffffffffffffffffffffffffff16906020019092919050505062000c81565b604051808215151515815260200191505060405180910390f35b3480156200028c57600080fd5b50620002af60048036038101908080351515906020019092919050505062000ca1565b005b348015620002be57600080fd5b50620002c962000d5a565b6040518082815260200191505060405180910390f35b348015620002ec57600080fd5b506200030d6004803603810190808035906020019092919050505062000d60565b604051808273ffffffffffffffffffffffffffffffffffffffff1673ffffffffffffffffffffffffffffffffffffffff16815260200191505060405180910390f35b3480156200035c57600080fd5b506200037f60048036038101908080351515906020019092919050505062000d9f565b005b600460019054906101000a900460ff1681565b600460009054906101000a900460ff1681565b6000801515600460009054906101000a900460ff161515148015620003df575060001515600460019054906101000a900460ff161515145b1515620003eb57600080fd5b600015156000803273ffffffffffffffffffffffffffffffffffffffff1673ffffffffffffffffffffffffffffffffffffffff16815260200190815260200160002060009054906101000a900460ff1615151415156200044a57600080fd5b60016000803273ffffffffffffffffffffffffffffffffffffffff1673ffffffffffffffffffffffffffffffffffffffff16815260200190815260200160002060006101000a81548160ff02191690831515021790555060033290806001815401808255809150509060018203906000526020600020016000909192909190916101000a81548173ffffffffffffffffffffffffffffffffffffffff021916908373ffffffffffffffffffffffffffffffffffffffff160217905550506200051162000e58565b604051809103906000f0801580156200052e573d6000803e3d6000fd5b5090507f234cf33b32239d80b54161e2396c80cdeaf4d34161300e54d8bc01eb7c0ea55381604051808273ffffffffffffffffffffffffffffffffffffffff1673ffffffffffffffffffffffffffffffffffffffff16815260200191505060405180910390a18073ffffffffffffffffffffffffffffffffffffffff166108fc349081150290604051600060405180830381858888f19350505050158015620005db573d6000803e3d6000fd5b5050565b60026020528060005260406000206000915054906101000a900460ff1681565b60008060008060009150600090505b600380549050811015620006c75760011515600160006003848154811015156200063457fe5b9060005260206000200160009054906101000a900473ffffffffffffffffffffffffffffffffffffffff1673ffffffffffffffffffffffffffffffffffffffff1673ffffffffffffffffffffffffffffffffffffffff16815260200190815260200160002060009054906101000a900460ff1615151415620006b95781806001019250505b80806001019150506200060e565b6103e88210151515620006d957600080fd5b6006548210151515620006eb57600080fd5b6005548210151515620006fd57600080fd5b6001600460006101000a81548160ff021916908315150217905550600093505b600380549050841015620007f4576003848154811015156200073b57fe5b9060005260206000200160009054906101000a900473ffffffffffffffffffffffffffffffffffffffff1692508273ffffffffffffffffffffffffffffffffffffffff16634957f3406040518163ffffffff167c0100000000000000000000000000000000000000000000000000000000028152600401600060405180830381600087803b158015620007cd57600080fd5b505af1158015620007e2573d6000803e3d6000fd5b5050505083806001019450506200071d565b50505050565b60008060008060009150600090505b600380549050811015620008c25760001515600160006003848154811015156200082f57fe5b9060005260206000200160009054906101000a900473ffffffffffffffffffffffffffffffffffffffff1673ffffffffffffffffffffffffffffffffffffffff1673ffffffffffffffffffffffffffffffffffffffff16815260200190815260200160002060009054906101000a900460ff1615151415620008b45781806001019250505b808060010191505062000809565b6103e88210151515620008d457600080fd5b6006548210151515620008e657600080fd5b6005548210151515620008f857600080fd5b6000600460006101000a81548160ff021916908315150217905550600093505b600380549050841015620009ef576003848154811015156200093657fe5b9060005260206000200160009054906101000a900473ffffffffffffffffffffffffffffffffffffffff1692508273ffffffffffffffffffffffffffffffffffffffff1663085b3f3f6040518163ffffffff167c0100000000000000000000000000000000000000000000000000000000028152600401600060405180830381600087803b158015620009c857600080fd5b505af1158015620009dd573d6000803e3d6000fd5b50505050838060010194505062000918565b50505050565b600115156000803273ffffffffffffffffffffffffffffffffffffffff1673ffffffffffffffffffffffffffffffffffffffff16815260200190815260200160002060009054906101000a900460ff16151514151562000a5457600080fd5b806006600082825401925050819055506003805490506006600082825481151562000a7b57fe5b049250508190555050565b60008060008060009150600090505b60038054905081101562000b4e57600115156002600060038481548110151562000abb57fe5b9060005260206000200160009054906101000a900473ffffffffffffffffffffffffffffffffffffffff1673ffffffffffffffffffffffffffffffffffffffff1673ffffffffffffffffffffffffffffffffffffffff16815260200190815260200160002060009054906101000a900460ff161515141562000b405781806001019250505b808060010191505062000a95565b6103e8821015151562000b6057600080fd5b600654821015151562000b7257600080fd5b600554821015151562000b8457600080fd5b6001600460016101000a81548160ff021916908315150217905550600093505b60038054905084101562000c7b5760038481548110151562000bc257fe5b9060005260206000200160009054906101000a900473ffffffffffffffffffffffffffffffffffffffff1692508273ffffffffffffffffffffffffffffffffffffffff166317d478a16040518163ffffffff167c0100000000000000000000000000000000000000000000000000000000028152600401600060405180830381600087803b15801562000c5457600080fd5b505af115801562000c69573d6000803e3d6000fd5b50505050838060010194505062000ba4565b50505050565b60016020528060005260406000206000915054906101000a900460ff1681565b600115156000803273ffffffffffffffffffffffffffffffffffffffff1673ffffffffffffffffffffffffffffffffffffffff16815260200190815260200160002060009054906101000a900460ff16151514151562000d0057600080fd5b80600260003273ffffffffffffffffffffffffffffffffffffffff1673ffffffffffffffffffffffffffffffffffffffff16815260200190815260200160002060006101000a81548160ff02191690831515021790555050565b60065481565b60038181548110151562000d7057fe5b906000526020600020016000915054906101000a900473ffffffffffffffffffffffffffffffffffffffff1681565b600115156000803273ffffffffffffffffffffffffffffffffffffffff1673ffffffffffffffffffffffffffffffffffffffff16815260200190815260200160002060009054906101000a900460ff16151514151562000dfe57600080fd5b80600160003273ffffffffffffffffffffffffffffffffffffffff1673ffffffffffffffffffffffffffffffffffffffff16815260200190815260200160002060006101000a81548160ff02191690831515021790555050565b6040516137698062000e6a83390190560060806040526000600a556014600c5532600660006101000a81548173ffffffffffffffffffffffffffffffffffffffff021916908373ffffffffffffffffffffffffffffffffffffffff16021790555033600760006101000a81548173ffffffffffffffffffffffffffffffffffffffff021916908373ffffffffffffffffffffffffffffffffffffffff16021790555042600981905550620000f960017f01000000000000000000000000000000000000000000000000000000000000000260107f01000000000000000000000000000000000000000000000000000000000000000217620000ff640100000000026401000000009004565b62000b03565b60008060009054906101000a900473ffffffffffffffffffffffffffffffffffffffff1673ffffffffffffffffffffffffffffffffffffffff16148062000180575060006200017e6000809054906101000a900473ffffffffffffffffffffffffffffffffffffffff16620004b3640100000000026401000000009004565b145b15620001a357620001a16000620004be640100000000026401000000009004565b505b6000809054906101000a900473ffffffffffffffffffffffffffffffffffffffff1673ffffffffffffffffffffffffffffffffffffffff166338cc48316040518163ffffffff167c0100000000000000000000000000000000000000000000000000000000028152600401602060405180830381600087803b1580156200022957600080fd5b505af11580156200023e573d6000803e3d6000fd5b505050506040513d60208110156200025557600080fd5b810190808051906020019092919050505073ffffffffffffffffffffffffffffffffffffffff16600160009054906101000a900473ffffffffffffffffffffffffffffffffffffffff1673ffffffffffffffffffffffffffffffffffffffff16141515620003c1576000809054906101000a900473ffffffffffffffffffffffffffffffffffffffff1673ffffffffffffffffffffffffffffffffffffffff166338cc48316040518163ffffffff167c0100000000000000000000000000000000000000000000000000000000028152600401602060405180830381600087803b1580156200034357600080fd5b505af115801562000358573d6000803e3d6000fd5b505050506040513d60208110156200036f57600080fd5b8101908080519060200190929190505050600160006101000a81548173ffffffffffffffffffffffffffffffffffffffff021916908373ffffffffffffffffffffffffffffffffffffffff1602179055505b600160009054906101000a900473ffffffffffffffffffffffffffffffffffffffff1673ffffffffffffffffffffffffffffffffffffffff1663688dcfd7826040518263ffffffff167c010000000000000000000000000000000000000000000000000000000002815260040180827effffffffffffffffffffffffffffffffffffffffffffffffffffffffffffff19167effffffffffffffffffffffffffffffffffffffffffffffffffffffffffffff19168152602001915050600060405180830381600087803b1580156200049757600080fd5b505af1158015620004ac573d6000803e3d6000fd5b5050505050565b6000813b9050919050565b6000620004d9620004e0640100000000026401000000009004565b9050919050565b60008062000511731d3b2638a7cc9f2cb3d298a3da7a90b67e5506ed620004b3640100000000026401000000009004565b1115620005c557731d3b2638a7cc9f2cb3d298a3da7a90b67e5506ed6000806101000a81548173ffffffffffffffffffffffffffffffffffffffff021916908373ffffffffffffffffffffffffffffffffffffffff160217905550620005bb6040805190810160405280600b81526020017f6574685f6d61696e6e657400000000000000000000000000000000000000000081525062000a38640100000000026401000000009004565b6001905062000a35565b6000620005f573c03a2615d5efaf5f49f60b7bb6583eaec212fdf1620004b3640100000000026401000000009004565b1115620006a95773c03a2615d5efaf5f49f60b7bb6583eaec212fdf16000806101000a81548173ffffffffffffffffffffffffffffffffffffffff021916908373ffffffffffffffffffffffffffffffffffffffff1602179055506200069f6040805190810160405280600c81526020017f6574685f726f707374656e33000000000000000000000000000000000000000081525062000a38640100000000026401000000009004565b6001905062000a35565b6000620006d973b7a07bcf2ba2f2703b24c0691b5278999c59ac7e620004b3640100000000026401000000009004565b11156200078d5773b7a07bcf2ba2f2703b24c0691b5278999c59ac7e6000806101000a81548173ffffffffffffffffffffffffffffffffffffffff021916908373ffffffffffffffffffffffffffffffffffffffff160217905550620007836040805190810160405280600981526020017f6574685f6b6f76616e000000000000000000000000000000000000000000000081525062000a38640100000000026401000000009004565b6001905062000a35565b6000620007bd73146500cfd35b22e4a392fe0adc06de1a1368ed48620004b3640100000000026401000000009004565b1115620008715773146500cfd35b22e4a392fe0adc06de1a1368ed486000806101000a81548173ffffffffffffffffffffffffffffffffffffffff021916908373ffffffffffffffffffffffffffffffffffffffff160217905550620008676040805190810160405280600b81526020017f6574685f72696e6b65627900000000000000000000000000000000000000000081525062000a38640100000000026401000000009004565b6001905062000a35565b6000620008a1736f485c8bf6fc43ea212e93bbf8ce046c7f1cb475620004b3640100000000026401000000009004565b11156200090657736f485c8bf6fc43ea212e93bbf8ce046c7f1cb4756000806101000a81548173ffffffffffffffffffffffffffffffffffffffff021916908373ffffffffffffffffffffffffffffffffffffffff1602179055506001905062000a35565b6000620009367320e12a1f859b3feae5fb2a0a32c18f5a65555bbf620004b3640100000000026401000000009004565b11156200099b577320e12a1f859b3feae5fb2a0a32c18f5a65555bbf6000806101000a81548173ffffffffffffffffffffffffffffffffffffffff021916908373ffffffffffffffffffffffffffffffffffffffff1602179055506001905062000a35565b6000620009cb7351efaf4c8b3c9afbd5ab9f4bbc82784ab6ef8faa620004b3640100000000026401000000009004565b111562000a30577351efaf4c8b3c9afbd5ab9f4bbc82784ab6ef8faa6000806101000a81548173ffffffffffffffffffffffffffffffffffffffff021916908373ffffffffffffffffffffffffffffffffffffffff1602179055506001905062000a35565b600090505b90565b806002908051906020019062000a5092919062000a54565b5050565b828054600181600116156101000203166002900490600052602060002090601f016020900481019282601f1062000a9757805160ff191683800117855562000ac8565b8280016001018555821562000ac8579182015b8281111562000ac757825182559160200191906001019062000aaa565b5b50905062000ad7919062000adb565b5090565b62000b0091905b8082111562000afc57600081600090555060010162000ae2565b5090565b90565b612c568062000b136000396000f300608060405260043610610107576000357c0100000000000000000000000000000000000000000000000000000000900463ffffffff168063085b3f3f1461010957806312065fe014610120578063155647bf1461014b57806317d478a11461017857806327dc297e1461018f57806333a1c7da1461020657806338bbfa501461028e57806338cc48311461034b578063481c6a75146103a25780634957f340146103f957806367eeba0c1461041057806373db08441461043b57806378ddac4b146104cb57806386f625ed146105535780638d258104146105825780638da5cb5b14610599578063a2e62045146105f0578063b20d30a9146105fa578063c6f0750414610627575b005b34801561011557600080fd5b5061011e610656565b005b34801561012c57600080fd5b506101356106cf565b6040518082815260200191505060405180910390f35b34801561015757600080fd5b50610176600480360381019080803590602001909291905050506106ee565b005b34801561018457600080fd5b5061018d6107af565b005b34801561019b57600080fd5b506102046004803603810190808035600019169060200190929190803590602001908201803590602001908080601f0160208091040260200160405190810160405280939291908181526020018383808284378201915050505050509192919290505050610868565b005b34801561021257600080fd5b5061027460048036038101908080359060200190820180359060200190808060200260200160405190810160405280939291908181526020018383602002808284378201915050505050509192919290803590602001909291905050506108ab565b604051808215151515815260200191505060405180910390f35b34801561029a57600080fd5b506103496004803603810190808035600019169060200190929190803590602001908201803590602001908080601f0160208091040260200160405190810160405280939291908181526020018383808284378201915050505050509192919290803590602001908201803590602001908080601f0160208091040260200160405190810160405280939291908181526020018383808284378201915050505050509192919290505050610a76565b005b34801561035757600080fd5b50610360610cc7565b604051808273ffffffffffffffffffffffffffffffffffffffff1673ffffffffffffffffffffffffffffffffffffffff16815260200191505060405180910390f35b3480156103ae57600080fd5b506103b7610ccf565b604051808273ffffffffffffffffffffffffffffffffffffffff1673ffffffffffffffffffffffffffffffffffffffff16815260200191505060405180910390f35b34801561040557600080fd5b5061040e610cf5565b005b34801561041c57600080fd5b50610425610d6e565b6040518082815260200191505060405180910390f35b34801561044757600080fd5b50610450610d74565b6040518080602001828103825283818151815260200191508051906020019080838360005b83811015610490578082015181840152602081019050610475565b50505050905090810190601f1680156104bd5780820380516001836020036101000a031916815260200191505b509250505060405180910390f35b3480156104d757600080fd5b506105396004803603810190808035906020019082018035906020019080806020026020016040519081016040528093929190818152602001838360200280828437820191505050505050919291929080359060200190929190505050610e12565b604051808215151515815260200191505060405180910390f35b34801561055f57600080fd5b50610580600480360381019080803515159060200190929190505050611094565b005b34801561058e57600080fd5b506105976111c9565b005b3480156105a557600080fd5b506105ae61122e565b604051808273ffffffffffffffffffffffffffffffffffffffff1673ffffffffffffffffffffffffffffffffffffffff16815260200191505060405180910390f35b6105f8611254565b005b34801561060657600080fd5b5061062560048036038101908080359060200190929190505050611598565b005b34801561063357600080fd5b50610654600480360381019080803515159060200190929190505050611620565b005b600760009054906101000a900473ffffffffffffffffffffffffffffffffffffffff1673ffffffffffffffffffffffffffffffffffffffff163373ffffffffffffffffffffffffffffffffffffffff161415156106b257600080fd5b6000600d60006101000a81548160ff021916908315150217905550565b60003073ffffffffffffffffffffffffffffffffffffffff1631905090565b60008082121515156106ff57600080fd5b819050600d60029054906101000a900473ffffffffffffffffffffffffffffffffffffffff1673ffffffffffffffffffffffffffffffffffffffff16636cf8b145826040518263ffffffff167c010000000000000000000000000000000000000000000000000000000002815260040180828152602001915050600060405180830381600087803b15801561079357600080fd5b505af11580156107a7573d6000803e3d6000fd5b505050505050565b600760009054906101000a900473ffffffffffffffffffffffffffffffffffffffff1673ffffffffffffffffffffffffffffffffffffffff163373ffffffffffffffffffffffffffffffffffffffff1614151561080b57600080fd5b60011515600d60009054906101000a900460ff16151514151561082d57600080fd5b600660009054906101000a900473ffffffffffffffffffffffffffffffffffffffff1673ffffffffffffffffffffffffffffffffffffffff16ff5b6108a7828260006040519080825280601f01601f1916602001820160405280156108a15781602001602082028038833980820191505090505b50610a76565b5050565b6000806000600660009054906101000a900473ffffffffffffffffffffffffffffffffffffffff1673ffffffffffffffffffffffffffffffffffffffff163373ffffffffffffffffffffffffffffffffffffffff1614151561090c57600080fd5b8484600061092482845161175590919063ffffffff16565b90503073ffffffffffffffffffffffffffffffffffffffff1631811115151561094c57600080fd5b8787600080600854600a541115151561096457600080fd5b600a549150600090505b8351811015610989578282019150808060010191505061096e565b600854821115151561099a57600080fd5b60001515600d60009054906101000a900460ff1615151415156109bc57600080fd5b62015180600954014211156109db576000600a81905550426009819055505b600098505b8b51891015610a67578b898151811015156109f757fe5b9060200190602002015197508773ffffffffffffffffffffffffffffffffffffffff166108fc8c9081150290604051600060405180830381858888f19350505050158015610a49573d6000803e3d6000fd5b508a600a6000828254019250508190555088806001019950506109e0565b50505050505050505092915050565b610a7e612b6b565b6060610a88612b6b565b610a90612b6b565b6060806060610a9d61178d565b73ffffffffffffffffffffffffffffffffffffffff163373ffffffffffffffffffffffffffffffffffffffff16141515610ad657600080fd5b8860059080519060200190610aec929190612b85565b507f891acff763972fa7f25226caa78556f59bcb130f6f13fd6ab9b9fef99cff9c6960056040518080602001828103825283818154600181600116156101000203166002900481526020019150805460018160011615610100020316600290048015610b995780601f10610b6e57610100808354040283529160200191610b99565b820191906000526020600020905b815481529060010190602001808311610b7c57829003601f168201915b50509250505060405180910390a1610bb089611aeb565b9650610c0a610c05610bf66040805190810160405280600981526020017f75696e743235363a200000000000000000000000000000000000000000000000815250611aeb565b89611b1990919063ffffffff16565b611b33565b9550610c1586611aeb565b9450610c67610c586040805190810160405280600181526020017f2e00000000000000000000000000000000000000000000000000000000000000815250611aeb565b86611b1990919063ffffffff16565b9350610c7285611b33565b9250610c7d84611b33565b9150610ca2610c8b84611aeb565b610c9484611aeb565b611b9590919063ffffffff16565b9050610cad81611c17565b600b81905550610cbb611254565b50505050505050505050565b600030905090565b600760009054906101000a900473ffffffffffffffffffffffffffffffffffffffff1681565b600760009054906101000a900473ffffffffffffffffffffffffffffffffffffffff1673ffffffffffffffffffffffffffffffffffffffff163373ffffffffffffffffffffffffffffffffffffffff16141515610d5157600080fd5b6001600d60006101000a81548160ff021916908315150217905550565b60085481565b60058054600181600116156101000203166002900480601f016020809104026020016040519081016040528092919081815260200182805460018160011615610100020316600290048015610e0a5780601f10610ddf57610100808354040283529160200191610e0a565b820191906000526020600020905b815481529060010190602001808311610ded57829003601f168201915b505050505081565b600080600080600660009054906101000a900473ffffffffffffffffffffffffffffffffffffffff1673ffffffffffffffffffffffffffffffffffffffff163373ffffffffffffffffffffffffffffffffffffffff16141515610e7457600080fd5b85610ea6600b54610e9869152d02c7e14af68000008961175590919063ffffffff16565b611c2b90919063ffffffff16565b6000610ebc82845161175590919063ffffffff16565b90503073ffffffffffffffffffffffffffffffffffffffff16318111151515610ee457600080fd5b88610f16600b54610f0869152d02c7e14af68000008c61175590919063ffffffff16565b611c2b90919063ffffffff16565b600080600854600a5411151515610f2c57600080fd5b600a549150600090505b8351811015610f515782820191508080600101915050610f36565b6008548211151515610f6257600080fd5b60001515600d60009054906101000a900460ff161515141515610f8457600080fd5b60011515600d60019054906101000a900460ff161515141515610fa657600080fd5b6201518060095401421115610fc5576000600a81905550426009819055505b610ff6600b54610fe869152d02c7e14af68000008f61175590919063ffffffff16565b611c2b90919063ffffffff16565b9950600098505b8c51891015611084578c8981518110151561101457fe5b9060200190602002015197508773ffffffffffffffffffffffffffffffffffffffff166108fc8b9081150290604051600060405180830381858888f19350505050158015611066573d6000803e3d6000fd5b5089600a600082825401925050819055508880600101995050610ffd565b5050505050505050505092915050565b60008060011515600d60019054906101000a900460ff1615151415156110b957600080fd5b600b5491506110ef826110e169152d02c7e14af6800000600c5461175590919063ffffffff16565b611c2b90919063ffffffff16565b9050803073ffffffffffffffffffffffffffffffffffffffff16311015151561111757600080fd5b600d60029054906101000a900473ffffffffffffffffffffffffffffffffffffffff1673ffffffffffffffffffffffffffffffffffffffff1663ca0ba858846040518263ffffffff167c01000000000000000000000000000000000000000000000000000000000281526004018082151515158152602001915050600060405180830381600087803b1580156111ac57600080fd5b505af11580156111c0573d6000803e3d6000fd5b50505050505050565b600760009054906101000a900473ffffffffffffffffffffffffffffffffffffffff16600d60026101000a81548173ffffffffffffffffffffffffffffffffffffffff021916908373ffffffffffffffffffffffffffffffffffffffff160217905550565b600660009054906101000a900473ffffffffffffffffffffffffffffffffffffffff1681565b3073ffffffffffffffffffffffffffffffffffffffff1631600160009054906101000a900473ffffffffffffffffffffffffffffffffffffffff1673ffffffffffffffffffffffffffffffffffffffff1663524f38896040518163ffffffff167c01000000000000000000000000000000000000000000000000000000000281526004018080602001828103825260038152602001807f55524c0000000000000000000000000000000000000000000000000000000000815250602001915050602060405180830381600087803b15801561132e57600080fd5b505af1158015611342573d6000803e3d6000fd5b505050506040513d602081101561135857600080fd5b81019080805190602001909291905050501115611428577f46cb989ef9cef13e930e3b7f286225a086e716a90d63e0b7da85d310a9db0c9a60405180806020018281038252604b8152602001807f4f7261636c697a6520717565727920776173204e4f542073656e742c20706c6581526020017f6173652061646420736f6d652045544820746f20636f76657220666f7220746881526020017f652071756572792066656500000000000000000000000000000000000000000081525060600191505060405180910390a1611596565b7f46cb989ef9cef13e930e3b7f286225a086e716a90d63e0b7da85d310a9db0c9a6040518080602001828103825260358152602001807f4f7261636c697a65207175657279207761732073656e742c207374616e64696e81526020017f6720627920666f722074686520616e737765722e2e000000000000000000000081525060400191505060405180910390a16001600d60016101000a81548160ff021916908315150217905550611594603c6040805190810160405280600381526020017f55524c0000000000000000000000000000000000000000000000000000000000815250608060405190810160405280604c81526020017f6a736f6e2868747470733a2f2f6170692e6b72616b656e2e636f6d2f302f707581526020017f626c69632f5469636b65723f706169723d455448555344292e726573756c742e81526020017f584554485a5553442e632e300000000000000000000000000000000000000000815250611c41565b505b565b600660009054906101000a900473ffffffffffffffffffffffffffffffffffffffff1673ffffffffffffffffffffffffffffffffffffffff163373ffffffffffffffffffffffffffffffffffffffff161415156115f457600080fd5b60001515600d60009054906101000a900460ff16151514151561161657600080fd5b8060088190555050565b60008060011515600d60019054906101000a900460ff16151514151561164557600080fd5b600b54915061167b8261166d69152d02c7e14af6800000600c5461175590919063ffffffff16565b611c2b90919063ffffffff16565b9050803073ffffffffffffffffffffffffffffffffffffffff1631101515156116a357600080fd5b600d60029054906101000a900473ffffffffffffffffffffffffffffffffffffffff1673ffffffffffffffffffffffffffffffffffffffff1663fa555537846040518263ffffffff167c01000000000000000000000000000000000000000000000000000000000281526004018082151515158152602001915050600060405180830381600087803b15801561173857600080fd5b505af115801561174c573d6000803e3d6000fd5b50505050505050565b6000808314156117685760009050611787565b818302905081838281151561177957fe5b0414151561178357fe5b8090505b92915050565b6000806000809054906101000a900473ffffffffffffffffffffffffffffffffffffffff1673ffffffffffffffffffffffffffffffffffffffff1614806117fd575060006117fb6000809054906101000a900473ffffffffffffffffffffffffffffffffffffffff166121e3565b145b1561180e5761180c60006121ee565b505b6000809054906101000a900473ffffffffffffffffffffffffffffffffffffffff1673ffffffffffffffffffffffffffffffffffffffff166338cc48316040518163ffffffff167c0100000000000000000000000000000000000000000000000000000000028152600401602060405180830381600087803b15801561189357600080fd5b505af11580156118a7573d6000803e3d6000fd5b505050506040513d60208110156118bd57600080fd5b810190808051906020019092919050505073ffffffffffffffffffffffffffffffffffffffff16600160009054906101000a900473ffffffffffffffffffffffffffffffffffffffff1673ffffffffffffffffffffffffffffffffffffffff16141515611a25576000809054906101000a900473ffffffffffffffffffffffffffffffffffffffff1673ffffffffffffffffffffffffffffffffffffffff166338cc48316040518163ffffffff167c0100000000000000000000000000000000000000000000000000000000028152600401602060405180830381600087803b1580156119a957600080fd5b505af11580156119bd573d6000803e3d6000fd5b505050506040513d60208110156119d357600080fd5b8101908080519060200190929190505050600160006101000a81548173ffffffffffffffffffffffffffffffffffffffff021916908373ffffffffffffffffffffffffffffffffffffffff1602179055505b600160009054906101000a900473ffffffffffffffffffffffffffffffffffffffff1673ffffffffffffffffffffffffffffffffffffffff1663c281d19e6040518163ffffffff167c0100000000000000000000000000000000000000000000000000000000028152600401602060405180830381600087803b158015611aab57600080fd5b505af1158015611abf573d6000803e3d6000fd5b505050506040513d6020811015611ad557600080fd5b8101908080519060200190929190505050905090565b611af3612b6b565b600060208301905060408051908101604052808451815260200182815250915050919050565b611b21612b6b565b611b2c8383836121ff565b5092915050565b606080600083600001516040519080825280601f01601f191660200182016040528015611b6f5781602001602082028038833980820191505090505b509150602082019050611b8b818560200151866000015161229d565b8192505050919050565b606080600083600001518560000151016040519080825280601f01601f191660200182016040528015611bd75781602001602082028038833980820191505090505b509150602082019050611bf3818660200151876000015161229d565b611c0c856000015182018560200151866000015161229d565b819250505092915050565b6000611c248260006122e8565b9050919050565b60008183811515611c3857fe5b04905092915050565b60008060008060009054906101000a900473ffffffffffffffffffffffffffffffffffffffff1673ffffffffffffffffffffffffffffffffffffffff161480611cb357506000611cb16000809054906101000a900473ffffffffffffffffffffffffffffffffffffffff166121e3565b145b15611cc457611cc260006121ee565b505b6000809054906101000a900473ffffffffffffffffffffffffffffffffffffffff1673ffffffffffffffffffffffffffffffffffffffff166338cc48316040518163ffffffff167c0100000000000000000000000000000000000000000000000000000000028152600401602060405180830381600087803b158015611d4957600080fd5b505af1158015611d5d573d6000803e3d6000fd5b505050506040513d6020811015611d7357600080fd5b810190808051906020019092919050505073ffffffffffffffffffffffffffffffffffffffff16600160009054906101000a900473ffffffffffffffffffffffffffffffffffffffff1673ffffffffffffffffffffffffffffffffffffffff16141515611edb576000809054906101000a900473ffffffffffffffffffffffffffffffffffffffff1673ffffffffffffffffffffffffffffffffffffffff166338cc48316040518163ffffffff167c0100000000000000000000000000000000000000000000000000000000028152600401602060405180830381600087803b158015611e5f57600080fd5b505af1158015611e73573d6000803e3d6000fd5b505050506040513d6020811015611e8957600080fd5b8101908080519060200190929190505050600160006101000a81548173ffffffffffffffffffffffffffffffffffffffff021916908373ffffffffffffffffffffffffffffffffffffffff1602179055505b600160009054906101000a900473ffffffffffffffffffffffffffffffffffffffff1673ffffffffffffffffffffffffffffffffffffffff1663524f3889856040518263ffffffff167c01000000000000000000000000000000000000000000000000000000000281526004018080602001828103825283818151815260200191508051906020019080838360005b83811015611f85578082015181840152602081019050611f6a565b50505050905090810190601f168015611fb25780820380516001836020036101000a031916815260200191505b5092505050602060405180830381600087803b158015611fd157600080fd5b505af1158015611fe5573d6000803e3d6000fd5b505050506040513d6020811015611ffb57600080fd5b8101908080519060200190929190505050905062030d403a02670de0b6b3a76400000181111561203157600060010291506121db565b600160009054906101000a900473ffffffffffffffffffffffffffffffffffffffff1673ffffffffffffffffffffffffffffffffffffffff1663adf59f99828787876040518563ffffffff167c0100000000000000000000000000000000000000000000000000000000028152600401808481526020018060200180602001838103835285818151815260200191508051906020019080838360005b838110156120e85780820151818401526020810190506120cd565b50505050905090810190601f1680156121155780820380516001836020036101000a031916815260200191505b50838103825284818151815260200191508051906020019080838360005b8381101561214e578082015181840152602081019050612133565b50505050905090810190601f16801561217b5780820380516001836020036101000a031916815260200191505b50955050505050506020604051808303818588803b15801561219c57600080fd5b505af11580156121b0573d6000803e3d6000fd5b50505050506040513d60208110156121c757600080fd5b810190808051906020019092919050505091505b509392505050565b6000813b9050919050565b60006121f86125dc565b9050919050565b612207612b6b565b60006122258560000151866020015186600001518760200151612a6b565b90508460200151836020018181525050846020015181038360000181815250508460000151856020015101811415612267576000856000018181525050612292565b8360000151836000015101856000018181510391508181525050836000015181018560200181815250505b829150509392505050565b60005b6020821015156122c557825184526020840193506020830192506020820391506122a0565b6001826020036101000a0390508019835116818551168181178652505050505050565b6000606060008060008693506000925060009150600090505b83518110156125bd5760307f010000000000000000000000000000000000000000000000000000000000000002848281518110151561233c57fe5b9060200101517f010000000000000000000000000000000000000000000000000000000000000090047f0100000000000000000000000000000000000000000000000000000000000000027effffffffffffffffffffffffffffffffffffffffffffffffffffffffffffff191610158015612454575060397f01000000000000000000000000000000000000000000000000000000000000000284828151811015156123e457fe5b9060200101517f010000000000000000000000000000000000000000000000000000000000000090047f0100000000000000000000000000000000000000000000000000000000000000027effffffffffffffffffffffffffffffffffffffffffffffffffffffffffffff191611155b1561250557811561247757600086141561246d576125bd565b8580600190039650505b600a830292506030848281518110151561248d57fe5b9060200101517f010000000000000000000000000000000000000000000000000000000000000090047f0100000000000000000000000000000000000000000000000000000000000000027f0100000000000000000000000000000000000000000000000000000000000000900403830192506125b0565b602e7f010000000000000000000000000000000000000000000000000000000000000002848281518110151561253757fe5b9060200101517f010000000000000000000000000000000000000000000000000000000000000090047f0100000000000000000000000000000000000000000000000000000000000000027effffffffffffffffffffffffffffffffffffffffffffffffffffffffffffff191614156125af57600191505b5b8080600101915050612301565b60008611156125cf5785600a0a830292505b8294505050505092915050565b6000806125fc731d3b2638a7cc9f2cb3d298a3da7a90b67e5506ed6121e3565b111561269d57731d3b2638a7cc9f2cb3d298a3da7a90b67e5506ed6000806101000a81548173ffffffffffffffffffffffffffffffffffffffff021916908373ffffffffffffffffffffffffffffffffffffffff1602179055506126946040805190810160405280600b81526020017f6574685f6d61696e6e6574000000000000000000000000000000000000000000815250612b51565b60019050612a68565b60006126bc73c03a2615d5efaf5f49f60b7bb6583eaec212fdf16121e3565b111561275d5773c03a2615d5efaf5f49f60b7bb6583eaec212fdf16000806101000a81548173ffffffffffffffffffffffffffffffffffffffff021916908373ffffffffffffffffffffffffffffffffffffffff1602179055506127546040805190810160405280600c81526020017f6574685f726f707374656e330000000000000000000000000000000000000000815250612b51565b60019050612a68565b600061277c73b7a07bcf2ba2f2703b24c0691b5278999c59ac7e6121e3565b111561281d5773b7a07bcf2ba2f2703b24c0691b5278999c59ac7e6000806101000a81548173ffffffffffffffffffffffffffffffffffffffff021916908373ffffffffffffffffffffffffffffffffffffffff1602179055506128146040805190810160405280600981526020017f6574685f6b6f76616e0000000000000000000000000000000000000000000000815250612b51565b60019050612a68565b600061283c73146500cfd35b22e4a392fe0adc06de1a1368ed486121e3565b11156128dd5773146500cfd35b22e4a392fe0adc06de1a1368ed486000806101000a81548173ffffffffffffffffffffffffffffffffffffffff021916908373ffffffffffffffffffffffffffffffffffffffff1602179055506128d46040805190810160405280600b81526020017f6574685f72696e6b656279000000000000000000000000000000000000000000815250612b51565b60019050612a68565b60006128fc736f485c8bf6fc43ea212e93bbf8ce046c7f1cb4756121e3565b111561295f57736f485c8bf6fc43ea212e93bbf8ce046c7f1cb4756000806101000a81548173ffffffffffffffffffffffffffffffffffffffff021916908373ffffffffffffffffffffffffffffffffffffffff16021790555060019050612a68565b600061297e7320e12a1f859b3feae5fb2a0a32c18f5a65555bbf6121e3565b11156129e1577320e12a1f859b3feae5fb2a0a32c18f5a65555bbf6000806101000a81548173ffffffffffffffffffffffffffffffffffffffff021916908373ffffffffffffffffffffffffffffffffffffffff16021790555060019050612a68565b6000612a007351efaf4c8b3c9afbd5ab9f4bbc82784ab6ef8faa6121e3565b1115612a63577351efaf4c8b3c9afbd5ab9f4bbc82784ab6ef8faa6000806101000a81548173ffffffffffffffffffffffffffffffffffffffff021916908373ffffffffffffffffffffffffffffffffffffffff16021790555060019050612a68565b600090505b90565b60008060008060008060008060008b97508c8b111515612b3b5760208b111515612af55760018b60200360080260020a03196001029550858a511694508a8d8d010393508588511692505b84600019168360001916141515612aed578388101515612ada578c8c019850612b41565b8780600101985050858851169250612ab6565b879850612b41565b8a8a209150600096505b8a8d0387111515612b3a578a88209050806000191682600019161415612b2757879850612b41565b6001880197508680600101975050612aff565b5b8c8c0198505b5050505050505050949350505050565b8060029080519060200190612b67929190612b85565b5050565b604080519081016040528060008152602001600081525090565b828054600181600116156101000203166002900490600052602060002090601f016020900481019282601f10612bc657805160ff1916838001178555612bf4565b82800160010185558215612bf4579182015b82811115612bf3578251825591602001919060010190612bd8565b5b509050612c019190612c05565b5090565b612c2791905b80821115612c23576000816000905550600101612c0b565b5090565b905600a165627a7a7230582037ea2284186d318868be26a6b9a25ed303641d113bd392555c83164fb8c3d8280029a165627a7a72305820b7cbe872168903cddb55482652f797eb53e1071df2cc35c83f38b12035a889b80029",
  "source": "pragma solidity^0.4.24;\r\nimport \"./CoolWallet.sol\";\r\n\r\ncontract CoolWalletManager{\r\n    mapping(address => bool) internal unlockedAccounts;\r\n    mapping(address => bool) public freezeVotes;\r\n    mapping(address => bool) public abandonVotes;\r\n    address[] public accounts;\r\n    bool public frozen = false;\r\n    bool public abandoned = false;\r\n    uint required = accounts.length/2;\r\n    // The following variable is to prevent malicious actors from simply forming more than 0% of accounts at early stages and voting for freezing/abandoning.\r\n    // Each wallet will get to vote on the minimum number of wallets made before it is safe to hand over control\r\n    // of freezing and abandoning wallets to the people. \r\n    // The vote for the minimum number will be averaged out with every new wallet\r\n    // The number is set high to counteract malicious votes on the minimum number\r\n    uint public CommunityVotingMinNumber = 1000;\r\n\r\n    event WalletCreated(address walletAddress);\r\n    \r\n    constructor() public{\r\n    }\r\n    \r\n    modifier normalActivity(){\r\n        require(frozen == false && abandoned == false);\r\n        _;\r\n    }\r\n    \r\n    modifier unlockedAccount(){\r\n        require(unlockedAccounts[tx.origin] == true);\r\n        _;\r\n    }\r\n    \r\n    modifier multiSigFreeze(){\r\n        uint voteNumber = 0;\r\n        for (uint i = 0; i<accounts.length;i++){\r\n            if (freezeVotes[accounts[i]] == true){\r\n                voteNumber++;\r\n            }\r\n        }\r\n        require(voteNumber >= 1000);\r\n        require(voteNumber >= CommunityVotingMinNumber);\r\n        require(voteNumber >= required);\r\n        _;\r\n    }\r\n\r\n    modifier multiSigUnfreeze(){\r\n        uint voteNumber = 0;\r\n        for (uint i = 0; i<accounts.length;i++){\r\n            if (freezeVotes[accounts[i]] == false){\r\n                voteNumber++;\r\n            }\r\n        }\r\n        require(voteNumber >= 1000);\r\n        require(voteNumber >= CommunityVotingMinNumber);\r\n        require(voteNumber >= required);\r\n        _;\r\n    }\r\n    \r\n    modifier multiSigAbandon(){\r\n        uint voteNumber = 0;\r\n        for (uint i = 0; i<accounts.length;i++){\r\n            if (abandonVotes[accounts[i]] == true){\r\n                voteNumber++;\r\n            }\r\n        }\r\n        require(voteNumber >= 1000);\r\n        require(voteNumber >= CommunityVotingMinNumber);\r\n        require(voteNumber >= required);\r\n        _;\r\n    }\r\n    \r\n    function createWallet() public payable normalActivity{\r\n        require(unlockedAccounts[tx.origin] == false);\r\n        unlockedAccounts[tx.origin] = true;\r\n        accounts.push(tx.origin);\r\n        CoolWallet newWallet = new CoolWallet();\r\n        emit WalletCreated(address(newWallet));\r\n        newWallet.transfer(msg.value);\r\n    }\r\n    \r\n    function freeze() external multiSigFreeze{\r\n        frozen = true;\r\n        for (uint i =0; i<accounts.length;i++){\r\n            CoolWallet toFreeze = CoolWallet(accounts[i]);\r\n            toFreeze.freezeWallet();\r\n        }\r\n    }\r\n\r\n    function unfreeze() external multiSigUnfreeze{\r\n        frozen = false;\r\n        for (uint i =0; i<accounts.length;i++){\r\n            CoolWallet toUnfreeze = CoolWallet(accounts[i]);\r\n            toUnfreeze.unfreezeWallet();\r\n        }\r\n    }\r\n    \r\n    function abandon() external multiSigAbandon{\r\n        abandoned = true;\r\n        for (uint i =0; i<accounts.length;i++){\r\n            CoolWallet toAbandon = CoolWallet(accounts[i]);\r\n            toAbandon.abandonWallet();\r\n        }\r\n    }\r\n    \r\n    function communityVote(uint minNumberToDecentralize) unlockedAccount external{\r\n        CommunityVotingMinNumber += minNumberToDecentralize;\r\n        CommunityVotingMinNumber /= accounts.length;\r\n    }\r\n    \r\n    function votingForFreeze(bool toFreeze) unlockedAccount external {\r\n        freezeVotes[tx.origin] = toFreeze;\r\n    }\r\n    \r\n    function votingForAbandon(bool toAbandon) unlockedAccount external {\r\n        abandonVotes[tx.origin] = toAbandon;\r\n    }\r\n    \r\n    function() public payable{    \r\n        //allow contract to receive money\r\n    }\r\n}",
  "sourcePath": "D:\\Downloads\\SMUSTUFF\\Y3S1\\Blockchain\\Projects\\Blockchain\\Ethereum\\Decentralised Wallet\\contracts\\CoolWalletManager.sol",
  "compiler": {
    "name": "solc",
    "version": "0.4.24+commit.e67f0147.Emscripten.clang"
  },
  "schemaVersion": "2.0.1",
  "updatedAt": "2018-08-24T17:24:49.965Z"
}