{
  "contractName": "Dish",
  "abi": [
    {
      "constant": true,
      "inputs": [
        {
          "name": "",
          "type": "uint256"
        }
      ],
      "name": "dishes",
      "outputs": [
        {
          "name": "name",
          "type": "string"
        },
        {
          "name": "dishNumber",
          "type": "uint256"
        },
        {
          "name": "price",
          "type": "uint256"
        },
        {
          "name": "state",
          "type": "uint8"
        },
        {
          "name": "seller",
          "type": "address"
        },
        {
          "name": "buyer",
          "type": "address"
        }
      ],
      "payable": false,
      "stateMutability": "view",
      "type": "function"
    },
    {
      "inputs": [],
      "payable": false,
      "stateMutability": "nonpayable",
      "type": "constructor"
    },
    {
      "anonymous": false,
      "inputs": [
        {
          "indexed": false,
          "name": "dishNumber",
          "type": "uint256"
        }
      ],
      "name": "Preparing",
      "type": "event"
    },
    {
      "anonymous": false,
      "inputs": [
        {
          "indexed": false,
          "name": "dishNumber",
          "type": "uint256"
        }
      ],
      "name": "Delivering",
      "type": "event"
    },
    {
      "anonymous": false,
      "inputs": [
        {
          "indexed": false,
          "name": "dishNumber",
          "type": "uint256"
        }
      ],
      "name": "AwaitingPayment",
      "type": "event"
    },
    {
      "anonymous": false,
      "inputs": [
        {
          "indexed": false,
          "name": "dishNumber",
          "type": "uint256"
        }
      ],
      "name": "Paid",
      "type": "event"
    },
    {
      "constant": false,
      "inputs": [
        {
          "name": "_name",
          "type": "string"
        },
        {
          "name": "_price",
          "type": "uint256"
        }
      ],
      "name": "addDish",
      "outputs": [],
      "payable": false,
      "stateMutability": "nonpayable",
      "type": "function"
    },
    {
      "constant": false,
      "inputs": [
        {
          "name": "dishNumber",
          "type": "uint256"
        }
      ],
      "name": "preparedDish",
      "outputs": [],
      "payable": false,
      "stateMutability": "nonpayable",
      "type": "function"
    },
    {
      "constant": false,
      "inputs": [
        {
          "name": "dishNumber",
          "type": "uint256"
        }
      ],
      "name": "reachedDestination",
      "outputs": [],
      "payable": false,
      "stateMutability": "nonpayable",
      "type": "function"
    },
    {
      "constant": false,
      "inputs": [
        {
          "name": "dishNumber",
          "type": "uint256"
        }
      ],
      "name": "pay",
      "outputs": [],
      "payable": true,
      "stateMutability": "payable",
      "type": "function"
    },
    {
      "constant": true,
      "inputs": [
        {
          "name": "_dishNumber",
          "type": "uint256"
        }
      ],
      "name": "fetchDish",
      "outputs": [
        {
          "name": "name",
          "type": "string"
        },
        {
          "name": "dishNumber",
          "type": "uint256"
        },
        {
          "name": "price",
          "type": "uint256"
        },
        {
          "name": "state",
          "type": "uint256"
        },
        {
          "name": "seller",
          "type": "address"
        },
        {
          "name": "buyer",
          "type": "address"
        }
      ],
      "payable": false,
      "stateMutability": "view",
      "type": "function"
    }
  ],
  "bytecode": "0x608060405234801561001057600080fd5b50336000806101000a81548173ffffffffffffffffffffffffffffffffffffffff021916908373ffffffffffffffffffffffffffffffffffffffff1602179055506000600181905550610cff806100686000396000f300608060405260043610610078576000357c0100000000000000000000000000000000000000000000000000000000900463ffffffff168063064fbd5a1461007d5780630a0cca7b146101ac5780632da9643f1461021f5780634dd67739146103405780634ffacead1461036d578063c290d6911461039a575b600080fd5b34801561008957600080fd5b506100a8600480360381019080803590602001909291905050506103ba565b60405180806020018781526020018681526020018560038111156100c857fe5b60ff1681526020018473ffffffffffffffffffffffffffffffffffffffff1673ffffffffffffffffffffffffffffffffffffffff1681526020018373ffffffffffffffffffffffffffffffffffffffff1673ffffffffffffffffffffffffffffffffffffffff168152602001828103825288818151815260200191508051906020019080838360005b8381101561016c578082015181840152602081019050610151565b50505050905090810190601f1680156101995780820380516001836020036101000a031916815260200191505b5097505050505050505060405180910390f35b3480156101b857600080fd5b5061021d600480360381019080803590602001908201803590602001908080601f0160208091040260200160405190810160405280939291908181526020018383808284378201915050505050509192919290803590602001909291905050506104db565b005b34801561022b57600080fd5b5061024a600480360381019080803590602001909291905050506106ac565b60405180806020018781526020018681526020018581526020018473ffffffffffffffffffffffffffffffffffffffff1673ffffffffffffffffffffffffffffffffffffffff1681526020018373ffffffffffffffffffffffffffffffffffffffff1673ffffffffffffffffffffffffffffffffffffffff168152602001828103825288818151815260200191508051906020019080838360005b838110156103005780820151818401526020810190506102e5565b50505050905090810190601f16801561032d5780820380516001836020036101000a031916815260200191505b5097505050505050505060405180910390f35b34801561034c57600080fd5b5061036b60048036038101908080359060200190929190505050610842565b005b34801561037957600080fd5b5061039860048036038101908080359060200190929190505050610903565b005b6103b8600480360381019080803590602001909291905050506109c5565b005b6002602052806000526040600020600091509050806000018054600181600116156101000203166002900480601f0160208091040260200160405190810160405280929190818152602001828054600181600116156101000203166002900480156104665780601f1061043b57610100808354040283529160200191610466565b820191906000526020600020905b81548152906001019060200180831161044957829003601f168201915b5050505050908060010154908060020154908060030160009054906101000a900460ff16908060030160019054906101000a900473ffffffffffffffffffffffffffffffffffffffff16908060040160009054906101000a900473ffffffffffffffffffffffffffffffffffffffff16905086565b7fb604403f24925f07472defaa35d7b2fc7d381523da0acc9ba643e701e3b71d306001546040518082815260200191505060405180910390a160c06040519081016040528083815260200160015481526020018281526020016000600381111561054157fe5b81526020016000809054906101000a900473ffffffffffffffffffffffffffffffffffffffff1673ffffffffffffffffffffffffffffffffffffffff1681526020013373ffffffffffffffffffffffffffffffffffffffff1681525060026000600154815260200190815260200160002060008201518160000190805190602001906105ce929190610c2e565b50602082015181600101556040820151816002015560608201518160030160006101000a81548160ff0219169083600381111561060757fe5b021790555060808201518160030160016101000a81548173ffffffffffffffffffffffffffffffffffffffff021916908373ffffffffffffffffffffffffffffffffffffffff16021790555060a08201518160040160006101000a81548173ffffffffffffffffffffffffffffffffffffffff021916908373ffffffffffffffffffffffffffffffffffffffff16021790555090505060018054016001819055505050565b60606000806000806000600260008881526020019081526020016000206000018054600181600116156101000203166002900480601f0160208091040260200160405190810160405280929190818152602001828054600181600116156101000203166002900480156107605780601f1061073557610100808354040283529160200191610760565b820191906000526020600020905b81548152906001019060200180831161074357829003601f168201915b5050505050955060026000888152602001908152602001600020600101549450600260008881526020019081526020016000206002015493506002600088815260200190815260200160002060030160009054906101000a900460ff1660038111156107c857fe5b92506000809054906101000a900473ffffffffffffffffffffffffffffffffffffffff1691506002600088815260200190815260200160002060040160009054906101000a900473ffffffffffffffffffffffffffffffffffffffff16905085858585858595509550955095509550955091939550919395565b8060006002600083815260200190815260200160002090506001600381111561086757fe5b8160030160009054906101000a900460ff16600381111561088457fe5b14151561089057600080fd5b600280600085815260200190815260200160002060030160006101000a81548160ff021916908360038111156108c257fe5b02179055507f64366778d10e1aa42eac97cfd66d47de329bfcf0a35b266e931ce337f4023bd7836040518082815260200191505060405180910390a1505050565b8060006002600083815260200190815260200160002090506000600381111561092857fe5b8160030160009054906101000a900460ff16600381111561094557fe5b14151561095157600080fd5b60016002600085815260200190815260200160002060030160006101000a81548160ff0219169083600381111561098457fe5b02179055507f1296d8b679e7014121d7b00fd136d9ca59bbeb19b1b3752fa053a7b00b38874a836040518082815260200191505060405180910390a1505050565b600080826000600260008381526020019081526020016000209050600260038111156109ed57fe5b8160030160009054906101000a900460ff166003811115610a0a57fe5b141515610a1657600080fd5b6002600086815260200190815260200160002060020154803410151515610a3c57600080fd5b85600080600260008a815260200190815260200160002060020154975033965086600260008b815260200190815260200160002060040160006101000a81548173ffffffffffffffffffffffffffffffffffffffff021916908373ffffffffffffffffffffffffffffffffffffffff1602179055506000809054906101000a900473ffffffffffffffffffffffffffffffffffffffff1673ffffffffffffffffffffffffffffffffffffffff166108fc899081150290604051600060405180830381858888f19350505050158015610b18573d6000803e3d6000fd5b506003600260008b815260200190815260200160002060030160006101000a81548160ff02191690836003811115610b4c57fe5b02179055507f581d416ae9dff30c9305c2b35cb09ed5991897ab97804db29ccf92678e953160896040518082815260200191505060405180910390a16002600084815260200190815260200160002060020154915081340390506002600084815260200190815260200160002060040160009054906101000a900473ffffffffffffffffffffffffffffffffffffffff1673ffffffffffffffffffffffffffffffffffffffff166108fc829081150290604051600060405180830381858888f19350505050158015610c22573d6000803e3d6000fd5b50505050505050505050565b828054600181600116156101000203166002900490600052602060002090601f016020900481019282601f10610c6f57805160ff1916838001178555610c9d565b82800160010185558215610c9d579182015b82811115610c9c578251825591602001919060010190610c81565b5b509050610caa9190610cae565b5090565b610cd091905b80821115610ccc576000816000905550600101610cb4565b5090565b905600a165627a7a72305820618ad98c4972022be186f780f1f6d17014ac624851117b508fa6787b42e9187f0029",
  "source": "pragma solidity ^0.4.23;\r\n\r\ncontract Dish {\r\n\r\n  /* set owner */\r\n  address owner;\r\n\r\n  /* Add a variable called dishNumberCount to track the most recent dishNumber # */\r\n  uint dishNumberCount;\r\n\r\n  /* Add a line that creates a public mapping that maps the dishNumber (a number) to a Dish.\r\n     Call this mappings dishes\r\n  */\r\n  mapping (uint => Dish) public dishes;\r\n\r\n  /* Add a line that creates an enum called State. This should have 4 states\r\n    Preparing\r\n    Delivering\r\n    AwaitingPayment\r\n    Payed\r\n    (declaring them in this order is important for testing)\r\n  */\r\n  enum State{\r\n      Preparing, Delivering, AwaitingPayment, Paid\r\n  }\r\n\r\n  /* Create a struct named Dish.\r\n    Here, add a name, dishNumber, price, state, seller, and buyer\r\n  */\r\n  struct Dish{\r\n      string name;\r\n      uint dishNumber; //each dish will have a unique dishNumber for traceability purposes\r\n      uint price;\r\n      State state;\r\n      address seller;\r\n      address buyer;\r\n  }\r\n\r\n  /* Create 4 events with the same name as each possible State (see above)\r\n    Each event should accept one argument, the dishNumber*/\r\n    event Preparing(uint dishNumber);\r\n    event Delivering(uint dishNumber);\r\n    event AwaitingPayment(uint dishNumber);\r\n    event Paid(uint dishNumber);\r\n\r\n/* Create a modifer that checks if the msg.sender is the owner of the contract */\r\n\r\n  modifier verifyCaller (address _address) {\r\n      require (msg.sender == _address); \r\n      _;\r\n  }\r\n\r\n  modifier paidEnough(uint _price) {\r\n      require(msg.value >= _price);\r\n      _;\r\n  }\r\n  modifier checkValue(uint _dishNumber) {\r\n    //refund them after pay for Dish UTXO style\r\n    _;\r\n    uint _price = dishes[_dishNumber].price;\r\n    uint amountToRefund = msg.value - _price;\r\n    dishes[_dishNumber].buyer.transfer(amountToRefund);\r\n  }\r\n\r\n  modifier preparing(uint dishNumber){\r\n      Dish storage dish = dishes[dishNumber];\r\n      require(dish.state == State.Preparing);\r\n      _;\r\n  }\r\n  modifier delivering(uint dishNumber){\r\n      Dish storage dish = dishes[dishNumber];\r\n      require(dish.state == State.Delivering);\r\n      _;\r\n  }\r\n  modifier awaitingPayment(uint dishNumber){\r\n      Dish storage dish = dishes[dishNumber];\r\n      require(dish.state == State.AwaitingPayment);\r\n      _;\r\n  }\r\n  modifier paid(uint dishNumber){\r\n      Dish storage dish = dishes[dishNumber];\r\n      require(dish.state == State.Paid);\r\n      _;\r\n  }\r\n\r\n\r\n  constructor() public {\r\n    /* Here, set the owner as the person who instantiated the contract\r\n       and set the dishNumberCount to 0. */\r\n       owner = msg.sender;\r\n       dishNumberCount = 0;\r\n  }\r\n\r\n  function addDish(string _name, uint _price) public {\r\n    emit Preparing(dishNumberCount);\r\n    dishes[dishNumberCount] = Dish({\r\n        name: _name, dishNumber: dishNumberCount, price: _price, state: State.Preparing, seller: owner, buyer: msg.sender\r\n        });\r\n    dishNumberCount = dishNumberCount + 1;\r\n  }\r\n\r\n  function preparedDish(uint dishNumber) public preparing(dishNumber) {\r\n      dishes[dishNumber].state = State.Delivering;\r\n      emit Delivering(dishNumber);\r\n  }\r\n  \r\n  function reachedDestination(uint dishNumber) public delivering(dishNumber){\r\n      dishes[dishNumber].state = State.AwaitingPayment;\r\n      emit AwaitingPayment(dishNumber);\r\n  }\r\n\r\n  function pay(uint dishNumber) public payable awaitingPayment(dishNumber) paidEnough(dishes[dishNumber].price) checkValue(dishNumber){\r\n      uint price = dishes[dishNumber].price;\r\n      address buyer = msg.sender;\r\n      dishes[dishNumber].buyer = buyer;\r\n      owner.transfer(price);\r\n      dishes[dishNumber].state = State.Paid;\r\n      emit Paid(dishNumber);\r\n      \r\n  }\r\n\r\n  /* For test purposes */\r\n  function fetchDish(uint _dishNumber) public view returns (string name, uint dishNumber, uint price, uint state, address seller, address buyer) {\r\n    name = dishes[_dishNumber].name;\r\n    dishNumber = dishes[_dishNumber].dishNumber;\r\n    price = dishes[_dishNumber].price;\r\n    state = uint(dishes[_dishNumber].state);\r\n    seller = owner;\r\n    buyer = dishes[_dishNumber].buyer;\r\n    return (name, dishNumber, price, state, seller, buyer);\r\n  }\r\n\r\n}\r\n",
  "sourcePath": "D:\\Downloads\\SMUSTUFF\\Y3S1\\Blockchain\\Projects\\Blockchain\\Food Order & Delivery DApp\\contracts\\Dish.sol",
  "compiler": {
    "name": "solc",
    "version": "0.4.24+commit.e67f0147.Emscripten.clang"
  },
  "schemaVersion": "2.0.0",
  "updatedAt": "2018-06-19T16:31:31.141Z"
}