{
  "contractName": "LetterOfCredit",
  "abi": [
    {
      "constant": true,
      "inputs": [],
      "name": "boe",
      "outputs": [
        {
          "name": "holder",
          "type": "address"
        },
        {
          "name": "paymentAmount",
          "type": "uint256"
        }
      ],
      "payable": false,
      "stateMutability": "view",
      "type": "function"
    },
    {
      "constant": false,
      "inputs": [],
      "name": "renounceOwnership",
      "outputs": [],
      "payable": false,
      "stateMutability": "nonpayable",
      "type": "function"
    },
    {
      "constant": true,
      "inputs": [],
      "name": "winningBid",
      "outputs": [
        {
          "name": "holder",
          "type": "address"
        },
        {
          "name": "paymentAmount",
          "type": "uint256"
        }
      ],
      "payable": false,
      "stateMutability": "view",
      "type": "function"
    },
    {
      "constant": true,
      "inputs": [],
      "name": "owner",
      "outputs": [
        {
          "name": "",
          "type": "address"
        }
      ],
      "payable": false,
      "stateMutability": "view",
      "type": "function"
    },
    {
      "constant": false,
      "inputs": [
        {
          "name": "_newOwner",
          "type": "address"
        }
      ],
      "name": "transferOwnership",
      "outputs": [],
      "payable": false,
      "stateMutability": "nonpayable",
      "type": "function"
    },
    {
      "inputs": [],
      "payable": false,
      "stateMutability": "nonpayable",
      "type": "constructor"
    },
    {
      "anonymous": false,
      "inputs": [
        {
          "indexed": false,
          "name": "paymentAmt",
          "type": "uint256"
        },
        {
          "indexed": false,
          "name": "exporter",
          "type": "address"
        }
      ],
      "name": "BOESet",
      "type": "event"
    },
    {
      "anonymous": false,
      "inputs": [
        {
          "indexed": false,
          "name": "newHolder",
          "type": "address"
        }
      ],
      "name": "BOEExercised",
      "type": "event"
    },
    {
      "anonymous": false,
      "inputs": [
        {
          "indexed": false,
          "name": "certified",
          "type": "bool"
        },
        {
          "indexed": false,
          "name": "date",
          "type": "uint256"
        },
        {
          "indexed": false,
          "name": "status",
          "type": "string"
        }
      ],
      "name": "CertificationDone",
      "type": "event"
    },
    {
      "anonymous": false,
      "inputs": [
        {
          "indexed": false,
          "name": "startAuction",
          "type": "string"
        }
      ],
      "name": "BOEFailed",
      "type": "event"
    },
    {
      "anonymous": false,
      "inputs": [
        {
          "indexed": false,
          "name": "message",
          "type": "string"
        }
      ],
      "name": "Alert",
      "type": "event"
    },
    {
      "anonymous": false,
      "inputs": [
        {
          "indexed": false,
          "name": "bidder",
          "type": "address"
        }
      ],
      "name": "WinningBid",
      "type": "event"
    },
    {
      "anonymous": false,
      "inputs": [
        {
          "indexed": true,
          "name": "previousOwner",
          "type": "address"
        }
      ],
      "name": "OwnershipRenounced",
      "type": "event"
    },
    {
      "anonymous": false,
      "inputs": [
        {
          "indexed": true,
          "name": "previousOwner",
          "type": "address"
        },
        {
          "indexed": true,
          "name": "newOwner",
          "type": "address"
        }
      ],
      "name": "OwnershipTransferred",
      "type": "event"
    },
    {
      "constant": false,
      "inputs": [
        {
          "name": "exporterAddr",
          "type": "address"
        },
        {
          "name": "importerAddr",
          "type": "address"
        },
        {
          "name": "shipperAddr",
          "type": "address"
        },
        {
          "name": "shipmentVal",
          "type": "uint256"
        }
      ],
      "name": "createBOE",
      "outputs": [],
      "payable": false,
      "stateMutability": "nonpayable",
      "type": "function"
    },
    {
      "constant": false,
      "inputs": [],
      "name": "emergencyOperationsStop",
      "outputs": [],
      "payable": false,
      "stateMutability": "nonpayable",
      "type": "function"
    },
    {
      "constant": false,
      "inputs": [],
      "name": "resumeOperations",
      "outputs": [],
      "payable": false,
      "stateMutability": "nonpayable",
      "type": "function"
    },
    {
      "constant": true,
      "inputs": [],
      "name": "getBOEHolder",
      "outputs": [
        {
          "name": "holder",
          "type": "address"
        }
      ],
      "payable": false,
      "stateMutability": "view",
      "type": "function"
    },
    {
      "constant": true,
      "inputs": [],
      "name": "getBOEPaymentAmt",
      "outputs": [
        {
          "name": "value",
          "type": "uint256"
        }
      ],
      "payable": false,
      "stateMutability": "view",
      "type": "function"
    },
    {
      "constant": true,
      "inputs": [],
      "name": "getWinningBOEHolder",
      "outputs": [
        {
          "name": "holder",
          "type": "address"
        }
      ],
      "payable": false,
      "stateMutability": "view",
      "type": "function"
    },
    {
      "constant": true,
      "inputs": [],
      "name": "getWinningBOEPaymentAmt",
      "outputs": [
        {
          "name": "value",
          "type": "uint256"
        }
      ],
      "payable": false,
      "stateMutability": "view",
      "type": "function"
    },
    {
      "constant": false,
      "inputs": [
        {
          "name": "value",
          "type": "uint256"
        }
      ],
      "name": "setBillOfExchangePrice",
      "outputs": [],
      "payable": false,
      "stateMutability": "nonpayable",
      "type": "function"
    },
    {
      "constant": false,
      "inputs": [
        {
          "name": "value",
          "type": "uint256"
        }
      ],
      "name": "unclaimedAuction",
      "outputs": [],
      "payable": false,
      "stateMutability": "nonpayable",
      "type": "function"
    },
    {
      "constant": false,
      "inputs": [],
      "name": "endAuction",
      "outputs": [],
      "payable": false,
      "stateMutability": "nonpayable",
      "type": "function"
    },
    {
      "constant": false,
      "inputs": [],
      "name": "exerciseBillOfExchange",
      "outputs": [],
      "payable": true,
      "stateMutability": "payable",
      "type": "function"
    },
    {
      "constant": false,
      "inputs": [],
      "name": "certifyCertOfInspection",
      "outputs": [],
      "payable": true,
      "stateMutability": "payable",
      "type": "function"
    },
    {
      "constant": false,
      "inputs": [],
      "name": "completeShipment",
      "outputs": [],
      "payable": false,
      "stateMutability": "nonpayable",
      "type": "function"
    }
  ],
  "bytecode": "0x608060405234801561001057600080fd5b50336000806101000a81548173ffffffffffffffffffffffffffffffffffffffff021916908373ffffffffffffffffffffffffffffffffffffffff160217905550611992806100606000396000f3006080604052600436106100fc576000357c0100000000000000000000000000000000000000000000000000000000900463ffffffff1680630227714b146101015780630639a813146101585780630a9b39c9146101625780630b3a623e146101b95780630f5c06f0146101c35780631a01b82d1461022157806347d35ecb1461024e5780634b9161ba1461027957806353e97c27146102a6578063715018a6146102bd5780637b4f9149146102d457806385ecbe96146102ff5780638cf80438146103165780638da5cb5b14610374578063a6e1d016146103cb578063b02695f5146103e2578063f2fde38b1461046f578063fe67a54b146104b2575b600080fd5b34801561010d57600080fd5b506101166104c9565b604051808273ffffffffffffffffffffffffffffffffffffffff1673ffffffffffffffffffffffffffffffffffffffff16815260200191505060405180910390f35b6101606104f6565b005b34801561016e57600080fd5b50610177610909565b604051808273ffffffffffffffffffffffffffffffffffffffff1673ffffffffffffffffffffffffffffffffffffffff16815260200191505060405180910390f35b6101c1610936565b005b3480156101cf57600080fd5b506101d8610b71565b604051808373ffffffffffffffffffffffffffffffffffffffff1673ffffffffffffffffffffffffffffffffffffffff1681526020018281526020019250505060405180910390f35b34801561022d57600080fd5b5061024c60048036038101908080359060200190929190505050610ba3565b005b34801561025a57600080fd5b50610263610c86565b6040518082815260200191505060405180910390f35b34801561028557600080fd5b506102a460048036038101908080359060200190929190505050610c93565b005b3480156102b257600080fd5b506102bb610e98565b005b3480156102c957600080fd5b506102d2610f10565b005b3480156102e057600080fd5b506102e9611012565b6040518082815260200191505060405180910390f35b34801561030b57600080fd5b5061031461101f565b005b34801561032257600080fd5b5061032b6110ca565b604051808373ffffffffffffffffffffffffffffffffffffffff1673ffffffffffffffffffffffffffffffffffffffff1681526020018281526020019250505060405180910390f35b34801561038057600080fd5b506103896110fc565b604051808273ffffffffffffffffffffffffffffffffffffffff1673ffffffffffffffffffffffffffffffffffffffff16815260200191505060405180910390f35b3480156103d757600080fd5b506103e0611121565b005b3480156103ee57600080fd5b5061046d600480360381019080803573ffffffffffffffffffffffffffffffffffffffff169060200190929190803573ffffffffffffffffffffffffffffffffffffffff169060200190929190803573ffffffffffffffffffffffffffffffffffffffff16906020019092919080359060200190929190505050611199565b005b34801561047b57600080fd5b506104b0600480360381019080803573ffffffffffffffffffffffffffffffffffffffff169060200190929190505050611380565b005b3480156104be57600080fd5b506104c76113e7565b005b6000600960000160009054906101000a900473ffffffffffffffffffffffffffffffffffffffff16905090565b60001515600660029054906101000a900460ff16151514151561051857600080fd5b3373ffffffffffffffffffffffffffffffffffffffff16600260009054906101000a900473ffffffffffffffffffffffffffffffffffffffff1673ffffffffffffffffffffffffffffffffffffffff1614151561057457600080fd5b61064d60048054600181600116156101000203166002900480601f01602080910402602001604051908101604052809291908181526020018280546001816001161561010002031660029004801561060d5780601f106105e25761010080835404028352916020019161060d565b820191906000526020600020905b8154815290600101906020018083116105f057829003601f168201915b50505050506040805190810160405280600781526020017f496e2d506f7274000000000000000000000000000000000000000000000000008152506114fa565b1561089e57604080519081016040528060011515815260200142815250600b60008201518160000160006101000a81548160ff02191690831515021790555060208201518160010155905050600760000160009054906101000a900473ffffffffffffffffffffffffffffffffffffffff1673ffffffffffffffffffffffffffffffffffffffff166108fc6005549081150290604051600060405180830381858888f1935050505015610830576040805190810160405280600981526020017f436f6c6c65637465640000000000000000000000000000000000000000000000815250600490805190602001906107459291906118c1565b507f898d333721de1515f41510b8bbe5b655953b25e0c55e27fabb07a4652604ce71600b60000160009054906101000a900460ff16600b60010154600460405180841515151581526020018381526020018060200182810382528381815460018160011615610100020316600290048152602001915080546001816001161561010002031660029004801561081b5780601f106107f05761010080835404028352916020019161081b565b820191906000526020600020905b8154815290600101906020018083116107fe57829003601f168201915b505094505050505060405180910390a1610899565b7fb42f912d2a6c6c7da83228b8b84b12578ffa4267ec2980110bcf1f59c083298660405180806020018281038252601d8152602001807f73656e64696e6720736869706d656e742076616c7565206661696c656400000081525060200191505060405180910390a15b610907565b7fb42f912d2a6c6c7da83228b8b84b12578ffa4267ec2980110bcf1f59c08329866040518080602001828103825260138152602001807f4974656d206973206e6f7420696e20706f72740000000000000000000000000081525060200191505060405180910390a15b565b6000600760000160009054906101000a900473ffffffffffffffffffffffffffffffffffffffff16905090565b60001515600660029054906101000a900460ff16151514151561095857600080fd5b600760000160009054906101000a900473ffffffffffffffffffffffffffffffffffffffff1673ffffffffffffffffffffffffffffffffffffffff166108fc61099f610c86565b9081150290604051600060405180830381858888f1935050505015610aaa5733600760000160006101000a81548173ffffffffffffffffffffffffffffffffffffffff021916908373ffffffffffffffffffffffffffffffffffffffff1602179055506000600660016101000a81548160ff0219169083151502179055507fee3369b5348dae7e7b96694fd87f56774090f96538ab9c508b637c2ec4785159600760000160009054906101000a900473ffffffffffffffffffffffffffffffffffffffff16604051808273ffffffffffffffffffffffffffffffffffffffff1673ffffffffffffffffffffffffffffffffffffffff16815260200191505060405180910390a1610b6f565b6000600660006101000a81548160ff0219169083151502179055506001600660016101000a81548160ff0219169083151502179055507f0de94515f1a770efd47f706d4f929172730186709cbf5dc4957961300845dc9460405180806020018281038252602c8152602001807f5374617274696e6720616e2041756374696f6e20666f72207468652042696c6c81526020017f206f662045786368616e6765000000000000000000000000000000000000000081525060400191505060405180910390a15b565b60078060000160009054906101000a900473ffffffffffffffffffffffffffffffffffffffff16908060010154905082565b610bab610909565b73ffffffffffffffffffffffffffffffffffffffff163373ffffffffffffffffffffffffffffffffffffffff16141515610be457600080fd5b806007600101819055507f22455e4f0e5b7a7721979513e160fe18a71169375632e0970275a18c353b589a600760010154600760000160009054906101000a900473ffffffffffffffffffffffffffffffffffffffff16604051808381526020018273ffffffffffffffffffffffffffffffffffffffff1673ffffffffffffffffffffffffffffffffffffffff1681526020019250505060405180910390a150565b6000600760010154905090565b60001515600660029054906101000a900460ff161515141515610cb557600080fd5b600660009054906101000a900460ff16158015610cde5750600660019054906101000a900460ff165b15610da3576001600660006101000a81548160ff0219169083151502179055506040805190810160405280600160009054906101000a900473ffffffffffffffffffffffffffffffffffffffff1673ffffffffffffffffffffffffffffffffffffffff1681526020016000815250600960008201518160000160006101000a81548173ffffffffffffffffffffffffffffffffffffffff021916908373ffffffffffffffffffffffffffffffffffffffff160217905550602082015181600101559050505b600960010154811115610e955760408051908101604052803373ffffffffffffffffffffffffffffffffffffffff16815260200182815250600960008201518160000160006101000a81548173ffffffffffffffffffffffffffffffffffffffff021916908373ffffffffffffffffffffffffffffffffffffffff160217905550602082015181600101559050507f4e85de552a6adbc895ba02b81bb9d9212fa9bf93f7d3ff19f871431414cea37533604051808273ffffffffffffffffffffffffffffffffffffffff1673ffffffffffffffffffffffffffffffffffffffff16815260200191505060405180910390a15b50565b6000809054906101000a900473ffffffffffffffffffffffffffffffffffffffff1673ffffffffffffffffffffffffffffffffffffffff163373ffffffffffffffffffffffffffffffffffffffff16141515610ef357600080fd5b6001600660026101000a81548160ff021916908315150217905550565b6000809054906101000a900473ffffffffffffffffffffffffffffffffffffffff1673ffffffffffffffffffffffffffffffffffffffff163373ffffffffffffffffffffffffffffffffffffffff16141515610f6b57600080fd5b6000809054906101000a900473ffffffffffffffffffffffffffffffffffffffff1673ffffffffffffffffffffffffffffffffffffffff167ff8df31144d9c2f0f6b59d69b8b98abd5459d07f2742c4df920b25aae33c6482060405160405180910390a260008060006101000a81548173ffffffffffffffffffffffffffffffffffffffff021916908373ffffffffffffffffffffffffffffffffffffffff160217905550565b6000600960010154905090565b3373ffffffffffffffffffffffffffffffffffffffff16600360009054906101000a900473ffffffffffffffffffffffffffffffffffffffff1673ffffffffffffffffffffffffffffffffffffffff1614151561107b576110c8565b6040805190810160405280600781526020017f496e2d506f727400000000000000000000000000000000000000000000000000815250600490805190602001906110c69291906118c1565b505b565b60098060000160009054906101000a900473ffffffffffffffffffffffffffffffffffffffff16908060010154905082565b6000809054906101000a900473ffffffffffffffffffffffffffffffffffffffff1681565b6000809054906101000a900473ffffffffffffffffffffffffffffffffffffffff1673ffffffffffffffffffffffffffffffffffffffff163373ffffffffffffffffffffffffffffffffffffffff1614151561117c57600080fd5b6000600660026101000a81548160ff021916908315150217905550565b83600160006101000a81548173ffffffffffffffffffffffffffffffffffffffff021916908373ffffffffffffffffffffffffffffffffffffffff16021790555082600260006101000a81548173ffffffffffffffffffffffffffffffffffffffff021916908373ffffffffffffffffffffffffffffffffffffffff16021790555081600360006101000a81548173ffffffffffffffffffffffffffffffffffffffff021916908373ffffffffffffffffffffffffffffffffffffffff160217905550806005819055506040805190810160405280600781526020017f5368697070656400000000000000000000000000000000000000000000000000815250600490805190602001906112ae9291906118c1565b5060408051908101604052808573ffffffffffffffffffffffffffffffffffffffff168152602001600554815250600760008201518160000160006101000a81548173ffffffffffffffffffffffffffffffffffffffff021916908373ffffffffffffffffffffffffffffffffffffffff1602179055506020820151816001015590505060408051908101604052806000151581526020016000815250600b60008201518160000160006101000a81548160ff0219169083151502179055506020820151816001015590505050505050565b6000809054906101000a900473ffffffffffffffffffffffffffffffffffffffff1673ffffffffffffffffffffffffffffffffffffffff163373ffffffffffffffffffffffffffffffffffffffff161415156113db57600080fd5b6113e481611510565b50565b60001515600660029054906101000a900460ff16151514151561140957600080fd5b611411610909565b73ffffffffffffffffffffffffffffffffffffffff163373ffffffffffffffffffffffffffffffffffffffff1614151561144a57600080fd5b6000600660016101000a81548160ff0219169083151502179055506000600660006101000a81548160ff021916908315150217905550600960076000820160009054906101000a900473ffffffffffffffffffffffffffffffffffffffff168160000160006101000a81548173ffffffffffffffffffffffffffffffffffffffff021916908373ffffffffffffffffffffffffffffffffffffffff16021790555060018201548160010155905050565b600080611507848461160a565b14905092915050565b600073ffffffffffffffffffffffffffffffffffffffff168173ffffffffffffffffffffffffffffffffffffffff161415151561154c57600080fd5b8073ffffffffffffffffffffffffffffffffffffffff166000809054906101000a900473ffffffffffffffffffffffffffffffffffffffff1673ffffffffffffffffffffffffffffffffffffffff167f8be0079c531659141344cd1fd0a4f28419497f9722a3daafe3b4186f6b6457e060405160405180910390a3806000806101000a81548173ffffffffffffffffffffffffffffffffffffffff021916908373ffffffffffffffffffffffffffffffffffffffff16021790555050565b600060608060008086935085925083519150818351101561162a57825191505b600090505b8181101561186d57828181518110151561164557fe5b9060200101517f010000000000000000000000000000000000000000000000000000000000000090047f0100000000000000000000000000000000000000000000000000000000000000027effffffffffffffffffffffffffffffffffffffffffffffffffffffffffffff191684828151811015156116c057fe5b9060200101517f010000000000000000000000000000000000000000000000000000000000000090047f0100000000000000000000000000000000000000000000000000000000000000027effffffffffffffffffffffffffffffffffffffffffffffffffffffffffffff1916101561175b577fffffffffffffffffffffffffffffffffffffffffffffffffffffffffffffffff94506118b7565b828181518110151561176957fe5b9060200101517f010000000000000000000000000000000000000000000000000000000000000090047f0100000000000000000000000000000000000000000000000000000000000000027effffffffffffffffffffffffffffffffffffffffffffffffffffffffffffff191684828151811015156117e457fe5b9060200101517f010000000000000000000000000000000000000000000000000000000000000090047f0100000000000000000000000000000000000000000000000000000000000000027effffffffffffffffffffffffffffffffffffffffffffffffffffffffffffff1916111561186057600194506118b7565b808060010191505061162f565b82518451101561189f577fffffffffffffffffffffffffffffffffffffffffffffffffffffffffffffffff94506118b7565b8251845111156118b257600194506118b7565b600094505b5050505092915050565b828054600181600116156101000203166002900490600052602060002090601f016020900481019282601f1061190257805160ff1916838001178555611930565b82800160010185558215611930579182015b8281111561192f578251825591602001919060010190611914565b5b50905061193d9190611941565b5090565b61196391905b8082111561195f576000816000905550600101611947565b5090565b905600a165627a7a7230582010b42e99543ad38af6a929f776b66ef86548f08d04c34ba221cff88a9fca8db20029",
  "source": "pragma solidity ^0.4.24;\r\n\r\nimport \"openzeppelin-solidity/contracts/ownership/Ownable.sol\";//usage of library\r\n\r\ncontract LetterOfCredit is Ownable {\r\n    address exporter;\r\n    address importer;\r\n    address shipper;\r\n    string shipmentStatus; \r\n    uint256 shipmentValue;\r\n    bool auctionStarted;\r\n    bool auctionFailed;\r\n    bool emergencyStop;\r\n\r\n    BillOfExchange public boe;\r\n    BillOfExchange public winningBid;\r\n    CertificateOfInspection coi;\r\n\r\n    event BOESet(uint paymentAmt, address exporter);\r\n    event BOEExercised(address newHolder);\r\n    event CertificationDone(bool certified, uint date,string status);\r\n    event BOEFailed(string startAuction);\r\n    event Alert(string message);\r\n    event WinningBid(address bidder);\r\n\r\n    struct BillOfExchange {\r\n        address holder;\r\n        uint256 paymentAmount; \r\n    }\r\n\r\n    struct CertificateOfInspection {\r\n        bool certified;\r\n        uint date; \r\n    }\r\n\r\n    modifier normalActivity(){ //circuit breaker condition here\r\n        require(emergencyStop == false);\r\n        _;\r\n    }\r\n\r\n    // The Letter of credit should only be instantiated by an exporter.  \r\n    // In this exercise, we will only be simulating the Bill of Exchange, and Certificate of Inspection functions as smart contracts.\r\n    constructor() public {\r\n    }\r\n\r\n//////////////// DO NOT EDIT CODE ABOVE THIS LINE ////////////////\r\n\r\n    // Allow the Bill of Exchange Holder to set the value of the bill. \r\n    // This may only be performed by the holder of the bill.\r\n\r\n    function createBOE(address exporterAddr, address importerAddr, address shipperAddr, uint256 shipmentVal) public {\r\n        exporter = exporterAddr;\r\n        importer = importerAddr; \r\n        shipper = shipperAddr;\r\n        shipmentValue = shipmentVal; \r\n        shipmentStatus = \"Shipped\";\r\n        boe = BillOfExchange({\r\n            holder: exporterAddr,\r\n            paymentAmount: shipmentValue\r\n        });\r\n\r\n        coi = CertificateOfInspection({\r\n            certified: false,\r\n            date: 0\r\n        });\r\n    }\r\n\r\n    function emergencyOperationsStop() public onlyOwner{ //circuit breaker\r\n        emergencyStop = true;\r\n    }\r\n\r\n    function resumeOperations() public onlyOwner{ //circuit joiner\r\n        emergencyStop = false;\r\n    }\r\n\r\n    function getBOEHolder() public view returns (address holder){\r\n        return boe.holder;\r\n    }\r\n\r\n    function getBOEPaymentAmt() public view returns (uint value){\r\n        return boe.paymentAmount;\r\n    }\r\n\r\n    function getWinningBOEHolder() public view returns (address holder){\r\n        return winningBid.holder;\r\n    }\r\n\r\n    function getWinningBOEPaymentAmt() public view returns (uint value){\r\n        return winningBid.paymentAmount;\r\n    }\r\n\r\n    function setBillOfExchangePrice(uint256 value) public {\r\n        require(msg.sender == getBOEHolder());\r\n        boe.paymentAmount = value; \r\n        emit BOESet(boe.paymentAmount,boe.holder);\r\n    }\r\n\r\n    // This function will be performed by anyone seeking finance the Bill of Exchange.\r\n    // First, the Financier (or msg.sender) will have to perform a transfer of funds to the current Bill Holder.\r\n    // Next, if payment is successful, the ownership of the Bill of Exchange will be set to the new holder, and the Payment Amount would be set to the new exchange amount. \r\n\r\n    function unclaimedAuction(uint256 value) public normalActivity{\r\n        // Assume 1 minute firesale auctions if BOE is left unclaimed\r\n        if (!auctionStarted && auctionFailed){\r\n            auctionStarted = true;\r\n            winningBid = BillOfExchange({\r\n                holder: exporter,\r\n                paymentAmount: 0\r\n            });\r\n        }\r\n        if (value > winningBid.paymentAmount){\r\n            winningBid = BillOfExchange({\r\n                holder: msg.sender,\r\n                paymentAmount: value\r\n            });\r\n            emit WinningBid(msg.sender);\r\n        }\r\n    }\r\n\r\n    function endAuction() public normalActivity{\r\n        require(msg.sender == getBOEHolder());\r\n        auctionFailed = false;\r\n        auctionStarted = false; //reset\r\n        boe = winningBid;\r\n    }\r\n\r\n    function exerciseBillOfExchange() public normalActivity payable{\r\n        // Attempt Transfer to BoE Holder\r\n        if(boe.holder.send(getBOEPaymentAmt())){\r\n            boe.holder = msg.sender;\r\n            auctionFailed = false;\r\n            emit BOEExercised(boe.holder);\r\n        }\r\n        else{\r\n            auctionStarted = false;\r\n            auctionFailed = true;\r\n            emit BOEFailed(\"Starting an Auction for the Bill of Exchange\");\r\n        }\r\n    }\r\n\r\n    // To be performed by the Importer once the goods are In-Port\r\n    // After inspection is certified by the importer, the importer then transfer the shipmentValue to the current holder of the Bill of Exchange. \r\n     \r\n    function certifyCertOfInspection() public normalActivity payable{\r\n        require(importer == msg.sender);\r\n        if(equal(shipmentStatus, \"In-Port\")){ \r\n            coi = CertificateOfInspection({\r\n                certified: true,\r\n                date: now\r\n            });\r\n            // Attempt Transfer funds to BoE Holder.\r\n            if(boe.holder.send(shipmentValue)){\r\n                shipmentStatus = \"Collected\"; \r\n                emit CertificationDone(coi.certified,coi.date,shipmentStatus);\r\n            }\r\n            else{\r\n                emit Alert(\"sending shipment value failed\");\r\n            }\r\n        }\r\n        else{\r\n            emit Alert(\"Item is not in port\");\r\n        }\r\n\r\n    }\r\n\r\n    function compare(string _a, string _b) private returns (int) {\r\n        bytes memory a = bytes(_a);\r\n        bytes memory b = bytes(_b);\r\n        uint minLength = a.length;\r\n        if (b.length < minLength) minLength = b.length;\r\n        //@todo unroll the loop into increments of 32 and do full 32 byte comparisons\r\n        for (uint i = 0; i < minLength; i ++)\r\n            if (a[i] < b[i])\r\n                return -1;\r\n            else if (a[i] > b[i])\r\n                return 1;\r\n        if (a.length < b.length)\r\n            return -1;\r\n        else if (a.length > b.length)\r\n            return 1;\r\n        else\r\n            return 0;\r\n    }\r\n\r\n//////////////// DO NOT EDIT CODE BELOW THIS LINE ////////////////\r\n\r\n\r\n/// Given Functions\r\n\r\n    /// @dev Changes the goods status from shipped to \"In-Port\" once goods are collected. \r\n    function completeShipment() public{\r\n        if(shipper != msg.sender){\r\n            return;\r\n        }\r\n        shipmentStatus = \"In-Port\";         \r\n    }\r\n\r\n    /// @dev Compares two strings and returns true if they are equal.\r\n    function equal(string _a, string _b) private returns (bool) {\r\n        return compare(_a, _b) == 0;\r\n    }\r\n}",
  "sourcePath": "D:\\Downloads\\SMUSTUFF\\Y3S1\\Blockchain\\Projects\\Blockchain\\Ethereum\\Inter-Bank Bill Of Exchange\\contracts\\LetterOfCredit.sol",
  "compiler": {
    "name": "solc",
    "version": "0.4.24+commit.e67f0147.Emscripten.clang"
  },
  "schemaVersion": "2.0.1",
  "updatedAt": "2018-08-27T19:04:54.222Z"
}